:020000040800F2
:10000000900C00204501000859190008351500081A
:1000100055190008C511000849210008000000001A
:10002000000000000000000000000000651B000848
:100030001512000800000000E1190008791C0008F2
:100040005F0100085F0100085F0100085F01000810
:100050005F0100085F0100085F0100085F01000800
:100060005F0100085F0100085F0100085F010008F0
:100070005F0100085F0100085F0100085F010008E0
:100080005F0100085F0100085F0100085F010008D0
:100090005F0100085F0100085F0100085F010008C0
:1000A0005F0100085F0100085F0100085F010008B0
:1000B0005F0100085F0100085F0100085F010008A0
:1000C0005F0100085F0100085F0100085F01000890
:1000D0005F010008191D0008191E00085F010008D3
:1000E0005F0100085F0100085F0100085F01000870
:1000F0005F0100085F0100085F0100085F01000860
:100100005F0100085F0100085F0100085F0100084F
:100110005F0100085F0100085F0100085F0100083F
:100120005F0100085F0100085F0100085F0100082F
:10013000DFF80CD000F0D4FA00480047C12A0008CC
:10014000900C00200648804706480047FEE7FEE77F
:10015000FEE7FEE7FEE7FEE7FEE7FEE7FEE7FEE777
:10016000B91C000831010008D2B201E000F8012BEF
:10017000491EFBD270470022F6E710B513460A4627
:1001800004461946FFF7F0FF204610BD30B505467E
:100190002A460B4612F8010B13F8014B08B1A04296
:1001A000F8D01CB1002802D06D1CF1E7284630BD04
:1001B000421C10F8011B0029FBD1801A704730B493
:1001C00080EA010202F0004530F0004221F00040D8
:1001D00013D090B1C30DD40DC2F31601C0F31600B5
:1001E000E41A41F4000140F400027D34914201D34D
:1001F000641C00E04900002C02DA30BC002070478B
:100200004FF400000023914201D3891A03434008B0
:100210004FEA4101F7D151B1914202D14FF0004173
:1002200005E002D24FF0010101E06FF0010103EBA4
:10023000C450284430BC00F063B8C10F80EAE070BD
:100240000844CA079623002100F063B800F000427A
:1002500030F000400AD0C10D01F56071C0F3160006
:1002600042EA0151C208400711437047002001468D
:10027000704730B50B46014600202022012409E0DA
:1002800021FA02F59D4205D303FA02F5491B04FA4F
:1002900002F52844151EA2F10102F1DC30BD2DE962
:1002A000F05F0546002092469B46884606468146FA
:1002B00040241BE0284641464746224600F031FADA
:1002C00053465A46C01A914110D311461846224649
:1002D00000F018FA2D1A67EB01084F46224601205C
:1002E000002100F00FFA17EB00094E41201EA4F187
:1002F0000104DFDC484631462A464346BDE8F09F0C
:100300000029A8BF7047401C490008BF20F0010029
:10031000704710B4B0FA80FC00FA0CF050EA010407
:1003200004BF10BC704749B1CCF1200421FA04F499
:1003300011FA0CF118BF012121430843A3EB0C0172
:10034000CB1D4FEA00614FEA102042BF002010BCD5
:10035000704700EBC35010440029A4BF10BC704785
:10036000401C490008BF20F0010010BC70472DE977
:10037000FE4F804681EA0300C00F0C46009021F03A
:10038000004123F00045B8EB0200A94105D24046E8
:10039000214690461C460B46024623F0004010437F
:1003A00047D0270DC7F30A00C3F30A510290401A41
:1003B000019040286BDAC3F3130040F4801B0098CF
:1003C000924620B10023D2EB030A63EB0B0B01989A
:1003D0005946C0F14002504600F094F906460D46D9
:1003E00050465946019A00F0ACF910EB0800614103
:1003F000002487EA115284EAE7731A4340D0009A36
:1004000062B3019A012A4FEA075215DC001B61EB27
:1004100002014FF0004202EA0752CDE90042001CFF
:1004200041F5801132462B4600F0ACF903B0BDE82F
:10043000F08F40462146F9E7001B61EB0201001CEA
:1004400041F5801300185B412018A2F5001747EB17
:10045000030140EAD570B6196D4111E06D084FEA0D
:10046000360645EAC0754FEA0752001B61EB0201F0
:10047000001C41F5801149084FEA30000019514134
:1004800032462B4603B0BDE8F04F00F06CB900983F
:10049000012240000023D0EB020263EBE0730098DE
:1004A00021464FEAE074B8EB000061EB0401E9E794
:1004B00083F000435BE781F0004158E72DE9FE4FF0
:1004C00081EA030404F0004421F0004100944FF05D
:1004D000000B23F0004350EA01045ED052EA03040B
:1004E0005BD0C3F30A54C1F30A552C44A4F2F3348D
:1004F0000194A0FB0254C1F3130141F48011C3F332
:10050000130343F4801301FB024400FB034E840AEF
:10051000970A44EA815447EA8357A4FB0768029587
:100520008D0A05FB07854FEA932C04FB0C54270525
:10053000029D4FEA065847EA1637B5EB08056EEB01
:10054000070C870E920E47EA811742EA8312A7FB37
:100550000201B6EB0B0164EB00042B0D43EA0C33F4
:100560005E1844EB1C50DA465146E7FB0201C5F326
:1005700013044FEA0B3343EA14534FEA0432019C4D
:1005800043EA0603A4F10C040294009CCDE900B4F4
:1005900000F0F8F803B0BDE8F08F00200146F9E75D
:1005A0002DE9F04D81EA030404F0004B21F00045F1
:1005B00014464FF0000A23F0004150EA050220D013
:1005C00054EA01021DD0C5F30A570246C5F31303CE
:1005D000C1F31300C1F30A5640F4801543F48013AD
:1005E000A7EB0608101BD64608F2FD3873EB050092
:1005F00002D308F1010801E092185B41B8F1000F45
:1006000003DA00200146BDE8F08D00204FF4801190
:10061000064684460EE0171B73EB050705D3121B35
:1006200063EB050306434CEA010C49084FEA30002E
:1006300092185B4150EA0107EDD152EA030012D053
:1006400082EA040083EA0501084305D0101BAB4190
:1006500006D20122002306E000224FF0004302E010
:100660006FF0010253101AEB06004CEB085110EB2F
:100670000A0041EB0B01BDE8F04D00F074B8C1F386
:100680000A52C1F3130140F2FF3341F480119A4240
:1006900002DA00200146704740F233439A42A2F248
:1006A000334202DC524200F03CB800F02BB80000AC
:1006B00030B5041E71F1000404DB4FF000444042E9
:1006C00064EB0101141E73F1000405DB1C464FF0BE
:1006D0000043524263EB0403994208BF904230BD8D
:1006E000064C074D06E0E06840F0010394E807007F
:1006F00098471034AC42F6D3FFF71EFD1CCC00081F
:100700003CCC0008202A04DB203A00FA02F1002049
:1007100070479140C2F1200320FA03F3194390403F
:100720007047202A04DB203A21FA02F000217047AA
:1007300021FA02F3D040C2F1200291400843194649
:100740007047202A06DBCB17203A41FA02F043EA31
:10075000E07306E041FA02F3D040C2F1200291407A
:1007600008431946704710B5141E73F1000408DAE7
:10077000401C41F1000192185B411A4301D120F065
:10078000010010BD2DE9F04D92469B4611B1B1FA22
:1007900081F202E0B0FA80F220329046FFF7B2FF19
:1007A00004460F4640EA0A0041EA0B0153465A4606
:1007B000084313D0114653EA010019D0C8F1400292
:1007C0005046FFF7AEFF05460E4650465946424694
:1007D000FFF798FF084305D0012004E02046394682
:1007E000BDE8F08D0020054346EAE0762C43374310
:1007F0000A986305E40AA0EB08000022FD0A44EA17
:1008000047540A3002D500200146E9E701051019D6
:100810006941DDE9084500196941BDE8F04DA2E7ED
:1008200070B500250024A9A001F07AFC4FF4967061
:1008300000F0F2FC4FF4967000F0EEFCA7A1A8487F
:10084000FFF7A4FCA74908600846006800283DD1CE
:10085000A5A001F07BFC00F0B7FC9CA001F060FCBF
:100860004FF4967000F0D8FC9CA19D48FFF78EFCD9
:100870009C4908600846006818B1A0A001F066FC19
:1008800022E0A3A19648FFF781FC9649086008463C
:100890000068C8B1A1A001F043FC4FF4FA7000F069
:1008A000BBFC4FF4967000F0B7FC00BF9E48006898
:1008B00000F4E0609D490843001D9B490860BFF3B8
:1008C0004F8F00BF00BFFEE700F07EFC00F07CFC15
:1008D00097A001F025FC4FF4967000F09DFC00F00D
:1008E00073FC4FF4967000F097FC99A001F018FC8F
:1008F0004FF4967000F090FC9BA17948FFF746FCFE
:10090000784908604FF480719B48FFF734FC4FF43E
:1009100080719A48FFF72FFC3FE0642000F07CFCD8
:100920006F48FFF745FC002837D08FA16C48FFF7D0
:100930002DFC6C49086008460068002827D0684AEA
:100940008FA18D4801F012FC8EA166480068401C02
:10095000FFF71CFC63490860002400BF6148016880
:10096000601C085C2C2800D107E05E480168601C10
:10097000085C82490855641CF0E700BF7E4982A0EC
:1009800001F0E4FB7D4987A001F0E0FB06E054495B
:100990008BA001F0DBFB00F017FCBEE700BF00F00E
:1009A00013FC76498AA001F0D1FB4FF480718E4888
:1009B000FFF7E1FB714A8DA18B4801F0D7FB8A4814
:1009C00001F0AEFB4FF4967000F026FC8EA1444877
:1009D000FFF7DCFB434908604FF480716648FFF77E
:1009E000CAFB4FF480718C48FFF7C5FB3BE06420E5
:1009F00000F012FC3A48FFF7DBFB002833D082A15D
:100A00003748FFF7C3FB37490860084600680028ED
:100A100027D0334A5AA1584801F0A8FB59A13148C0
:100A20000068401CFFF7B2FB2E490860002400BF9D
:100A30002C480168601C085C2C2800D107E029487C
:100A40000168601C085C74490855641CF0E700BF2D
:100A500049494DA001F07AFB6F4970A001F076FB87
:100A600002E000F0B1FBC2E700BF00F0ADFB6A4955
:100A700071A001F06BFB4FF480715B48FFF77BFBCB
:100A8000654A73A1584801F071FB574801F048FBD3
:100A90004FF4967000F0C0FB10A11148FFF776FBF1
:100AA000104908600AE06D1C0CA10D48FFF76EFBB1
:100AB0000C490860642D01DD002503E00948006849
:100AC0000028F0D000BF00F07FFB70BD41542B4DDB
:100AD00049504C4352454154450D0A004F4B0000CC
:100AE0008407002020000020C6F4B6AF4C574D32DA
:100AF0004DD0ADD2E9CAA7B0DC0D0A00C6F4B6AF3E
:100B00004C574D324DD0ADD2E9B3C9B9A60D0A004C
:100B10004552524F523A20363533000041542B5142
:100B20005253543D310D0A000CED00E00000FA056F
:100B300041542B4D49504C4144444F424A3D302C86
:100B4000333330332C312C312C312C300D0A000052
:100B500041542B4D49504C4F50454E3D302C38366A
:100B60003430300D0A0000002B4D49504C4F425399
:100B70004552564500000000380100203802002090
:100B8000257300002C000000B5C3B5BD4154C3FC63
:100B9000C1EE3A6174627566203D202573200D0A0E
:100BA00000000000B5C3B5BDB9DBB2ECBAC53A6F01
:100BB000626A746E756D203D202573200D0A000059
:100BC000C1ACBDD3B7B4C0A13A25730D0A00000073
:100BD0006F626A656374206E756D626572203D2078
:100BE00025730D0A000000003800002041542B4DF1
:100BF00049504C4F4253455256455253503D302C6C
:100C000025732C310D0A00002B4D49504C4449539B
:100C1000434F56455200000038030020B5C3B5BD10
:100C2000D7CAD4B4BAC53A646973746E756D203D81
:100C3000202573200D0A0000646973636F76657266
:100C4000206E756D626572203D2025730D0A0000CF
:100C500041542B4D49504C444953434F56455252F1
:100C600053503D302C25732C312C342C2235373009
:100C700030220D0A0000000010B5002400208A492F
:100C800008608AA001F062FA00F09EFA8CA001F0E0
:100C900047FA40F6B83000F0BFFA8B4801F056FA38
:100CA0008AA001F053FA8DA18748FFF76FFA8C49AB
:100CB000086011E08BA001F049FA00F085FA80A0ED
:100CC00001F02EFA4FF4967000F0A6FA83A17E4848
:100CD000FFF75CFA82490860814800680028E9D083
:100CE00087A001F01DFA4FF4967000F095FA87A1E5
:100CF0007548FFF74BFA7A4908600846006858B90A
:100D00007149083183A001F021FA00F05DFA4FF437
:100D1000967000F081FA0CE00120634908606A498E
:100D200081A001F013FA00F04FFA4FF4967000F032
:100D300073FA81A001F0F4F94FF4967000F06CFAA8
:100D400066A16148FFF722FA6549086000F03CFAA5
:100D50006348006840B100F037FA7AA001F0F6F974
:100D60004FF4967000F058FA7AA001F0D9F94FF4D8
:100D7000967000F051FA7AA15348FFF707FA5849E4
:100D8000086000F021FA002416E0641C00F01CFA50
:100D900070A001F0C5F94FF4967000F03DFA70A113
:100DA0004948FFF7F3F94E490860642C04DD01203F
:100DB0003D490860002403E0494800680028E4D069
:100DC00000BF6AA001F0ACF94FF4967000F024FA6D
:100DD00042A13D48FFF7DAF941490860084600683A
:100DE00048B1394964A001F0B1F900F0EDF94FF4D0
:100DF000967000F011FA68A001F092F94FF4967025
:100E000000F00AFA67A13048FFF7C0F934490860DA
:100E10000846006848B12C4964A001F097F900F039
:100E2000D3F94FF4967000F0F7F964A001F078F967
:100E30004FF4967000F0F0F963A12348FFF7A6F98C
:100E40002749086063A12048FFF7A0F964490860BA
:100E500000F0BAF900241CE0641C00F0B5F957A0BA
:100E600001F05EF94FF4967000F0D6F956A11648DD
:100E7000FFF78CF91A49086056A11348FFF786F965
:100E800057490860642C04DD0120074908600024EC
:100E900006E01348006818B9514800680028DBD004
:100EA00000BF0148006810BD280000207374617203
:100EB0007420696E697420424332360D0A000000C6
:100EC0004154490D0A000000840700206765742022
:100ED0006261636B20424332360D0A004F4B0000C3
:100EE000200000200D0AB5A5C6ACBBFAD5FDD4DAAA
:100EF000C1ACBDD3B5BDC4A3BFE92E2E2E0D0A00D3
:100F000041542B43494D490D0A0000004552524FB0
:100F100052000000CED2B5C4BFA8BAC5CAC7203A95
:100F2000202573200D0A0000BFA8B4EDCEF3203AAF
:100F3000202573200D0A000041542B4347534E3D9A
:100F4000310D0A0047455420494D4549204F4B0D6E
:100F50000A00000041542B43474154543F0D0A00FE
:100F60002B43474154543A203100000041542B5147
:100F700042414E443F0D0A003D3D3D3D3D3D3D3D1E
:100F800042414E443D3D3D3D3D3D3D3D3D200D0AF0
:100F9000202573200D0A000041542B4353510D0AA4
:100FA000000000002B43535100000000D0C5BAC51B
:100FB000D6CAC1BF3A25730D0A00000041542B4325
:100FC000455245473F0D0A002B43455245473A20BD
:100FD000302C31002B43455245473A20312C31000B
:100FE0002400002010B500242BA001F099F84FF444
:100FF000967000F011F900F0E7F82BA001F090F8DE
:101000004FF4967000F008F900F0DEF829A001F026
:1010100087F81E2000F000F929A12C48FFF7B6F848
:101020002B49086000F0D0F813E0641C00F0CCF805
:1010300020A001F075F84FF4967000F0EDF820A1B3
:101040002248FFF7A3F822490860642C01DD002440
:1010500003E01F4800680028E7D000BF1DA001F092
:101060005FF84FF4967000F0D7F800F0ADF84FF449
:10107000967000F0D1F81CA001F052F84FF4967071
:1010800000F0CAF800F0A0F84FF4967000F0C4F831
:101090001AA001F05BF810BD41542B434750414466
:1010A00044523D310D0A000041542B4347534E3DFD
:1010B000310D0A0041542B43474154543F0D0A005F
:1010C0002B43474154543A2031000000840700204C
:1010D0002000002041542B4D49504C434C4F534568
:1010E0003D300D0A0000000041542B4D49504C4446
:1010F000454C4554453D300D0A0000000D0A6A7507
:10110000737420636C6F7365206F6C6420736F63FE
:101110006B65740D0A00000070B504460025184880
:101120000068401C164908604FF480711548FFF7AD
:1011300022F82346144A15A1124801F017F8114865
:1011400000F0EEFF4FF4967000F066F81AA11B480D
:10115000FFF71CF81A4908600AE06D1C16A1174831
:10116000FFF714F816490860642D01DD002503E03F
:10117000134800680028F0D000BF00F025F870BDCB
:101180002C000020380000203802002041542B4D54
:1011900049504C4E4F544946593D302C25732C3301
:1011A0003330332C302C353730302C342C342C2544
:1011B000642C302C300D0A004F4B000084070020B7
:1011C0002000002000BFFEE710B54FF4967000F03D
:1011D00023F800200449C1F804014FF4807102484B
:1011E000FEF7C9FF10BD00008407002010B50848B5
:1011F00000F0ACFF4FF4967000F00EF800200449A8
:10120000C1F80401C8210248FEF7B5FF10BD000077
:10121000B4040020704700000146114A12884A4376
:101220004FF0E0235A6100229A611A46126942F097
:1012300001021A6100BF4FF0E022106900F00102C4
:101240001AB100F48032002AF5D04FF0E022126982
:1012500022F001024FF0E0231A6100229A617047E8
:10126000320000202DE9F041024600250026002032
:1012700000230024002791F803C00CF00F0591F81B
:1012800003C00CF0100CBCF1000F03D091F802C0A9
:101290004CEA050591F800C0BCF1000F31D014688C
:1012A00000202BE04FF0010C0CFA00F3B1F800C065
:1012B0000CEA03069E4220D183004FF00F0C0CFA7B
:1012C00003F7BC4305FA03FC4CEA040491F803C09D
:1012D000BCF1280F06D14FF0010C0CFA00FCC2F84B
:1012E00014C00AE091F803C0BCF1480F05D14FF0DB
:1012F000010C0CFA00FCC2F810C0401C0828D1D325
:101300001460B1F800C0BCF1FF0F34DD5468002058
:101310002EE000F1080C4FF0010808FA0CF3B1F8C8
:1013200000C00CEA03069E4221D183004FF00F0C4F
:101330000CFA03F7BC4305FA03FC4CEA040491F8E9
:1013400003C0BCF1280F05D100F1080C08FA0CF815
:10135000C2F8148091F803C0BCF1480F07D100F126
:10136000080C4FF0010808FA0CF8C2F81080401C75
:101370000828CED35460BDE8F081016170470000B9
:101380002DE9F84F0746884693469A46DDF828909F
:101390000097B3E099F8000080283DDA99F80060E2
:1013A0000D2E05D1009F08F110001FFA80F830E0E3
:1013B000202E03DDA6F1200086B200E000260024E6
:1013C00022E000251CE004EB06105049085C802157
:1013D0002941084040B108EB040291B27A1990B259
:1013E0005A4600F097F809E0D34507D008EB04020D
:1013F00091B27A1990B2524600F08CF8681CC5B2CE
:10140000082DE0DB601CC4B2102CDADB07F1080009
:1014100087B209F1010971E0002668E006EB0610C9
:101420003B4911F8100099F8001088425DD106EB95
:101430000610374901EB4000407899F801108842C6
:1014400053D100244FE0002520E006EB0610304980
:1014500001EB4000801C10F814108020284101404E
:1014600041B108EB040291B27A1990B25A4600F0E9
:1014700051F809E0D34507D008EB040291B27A197C
:1014800090B2524600F046F8681CC5B2082DDCDB6D
:10149000002524E006EB06101D4901EB4000801CEE
:1014A000012101EB4401405C80212941084048B101
:1014B00008EB040291B27A19083290B25A4600F051
:1014C00029F80AE0D34508D008EB040291B27A1952
:1014D000083290B2524600F01DF8681CC5B2082DC3
:1014E000D8DB601CC4B2102CADDB701C86B2322E6F
:1014F00094DB09F1020907F1100087B299F80000A6
:1015000000287FF447AFBDE8F88F00006A2E00087E
:10151000DC3B000870B504460D461646681C83B2D5
:10152000601C82B22946204600F0AAF9304600F03D
:101530002DF870BD00BFFEE708B50121082000F0BE
:1015400079FA40F20340ADF8000003208DF8020064
:1015500010208DF8030069460A48FFF783FE012139
:10156000042000F067FAB020ADF8000003208DF8E9
:10157000020010208DF8030069460348FFF772FE51
:1015800008BD0000000C01400008014010B50446F1
:10159000102008490860022007490860201200F066
:1015A000C3FAE0B200F0C0FA10200249091F086037
:1015B00010BD000014080140100C014008B50121C5
:1015C000482000F037FA2020ADF8000010208DF8F8
:1015D000030003208DF8020069460948FFF742FE28
:1015E00020210748FFF7C9FE2020ADF8000069461A
:1015F0000448FFF737FE20210248FFF7BEFE08BD72
:10160000000C01400018014070B506469F237F2260
:101610000021084600F034F92C2000F06FF9002476
:1016200008E0002503E03046FFF7B0FF6D1CA02D59
:10163000F9D3641C802CF4D370BD10B5FFF77CFF88
:1016400000F00CF9112000F059F9782001F000FAAF
:10165000B12000F053F9012000F03CF92C2000F0FB
:1016600039F92D2000F036F9B22000F047F90120B9
:1016700000F030F92C2000F02DF92D2000F02AF98F
:10168000B32000F03BF9012000F024F92C2000F0F9
:1016900021F92D2000F01EF9012000F01BF92C206B
:1016A00000F018F92D2000F015F9B42000F026F90B
:1016B000072000F00FF9C02000F020F9A22000F070
:1016C00009F9022000F006F9842000F003F9C12096
:1016D00000F014F9C52000F0FDF8C22000F00EF96A
:1016E0000A2000F0F7F8002000F0F4F8C32000F022
:1016F00005F98A2000F0EEF82A2000F0EBF8C4206B
:1017000000F0FCF88A2000F0E5F8EE2000F0E2F8A6
:10171000C52000F0F3F80E2000F0DCF8362000F0D1
:10172000EDF8C02000F0D6F8E02000F0E7F80F2038
:1017300000F0D0F81A2000F0CDF80F2000F0CAF821
:10174000182000F0C7F82F2000F0C4F8282000F07F
:10175000C1F8202000F0BEF8222000F0BBF81F20C6
:1017600000F0B8F81B2000F0B5F8232000F0B2F824
:10177000372000F0AFF8002000F0ACF8072000F0B0
:10178000A9F8022000F0A6F8102000F0A3F8E1204C
:1017900000F0B4F80F2000F09DF81B2000F09AF83C
:1017A0000F2000F097F8172000F094F8332000F095
:1017B00091F82C2000F08EF8292000F08BF82E20D4
:1017C00000F088F8302000F085F8302000F082F832
:1017D000392000F07FF83F2000F07CF8002000F076
:1017E00079F8072000F076F8032000F073F8102055
:1017F00000F070F82A2000F081F8002000F06AF86C
:10180000002000F067F8002000F064F87F2000F06E
:1018100061F82B2000F072F8002000F05BF8002047
:1018200000F058F8002000F055F89F2000F052F822
:10183000F02000F063F8012000F04CF8F62000F0F2
:101840005DF8002000F046F83A2000F057F8052037
:1018500000F040F8292000F051F810BD10B501202B
:1018600006490860642001F0F3F801200349091FCC
:101870000860322001F0ECF810BD0000140C0140AB
:10188000F0B505460C4616461F462A2000F036F8ED
:10189000002000F01FF8E8B200F01CF8002000F073
:1018A00019F8B11CC8B200F015F82B2000F026F88A
:1018B000002000F00FF8E0B200F00CF8002000F07B
:1018C00009F8791CC8B200F005F82C2000F016F8D1
:1018D000F0BD000010B50446102006490860022043
:1018E00005490860204600F01FF910200149091F32
:1018F000086010BD14080140100C014010B50446EA
:10190000102006490860022005490860204600F0C2
:101910000BF910200149091F086010BD140801408F
:10192000140C01400A49D1F80411FF2904D90021FF
:10193000074AC2F804110AE00549D1F80421D1F898
:101940000411491C024BC3F804111946885470470E
:10195000B404002000BFFEE77047000070B500210E
:1019600000230F22C47804B3154C246804F4E06407
:10197000C4F5E064210AC1F10403CA40447804FAC2
:1019800003F184781440214309010E4C0678A155D7
:10199000047804F01F050124AC4005786D11AD00FA
:1019A00005F1E025C5F8004109E0047804F01F05C1
:1019B0000124AC40044D0678761145F8264070BDF0
:1019C0000CED00E000E400E080E100E002490143AA
:1019D000024A1160704700000000FA050CED00E0BB
:1019E0007047000010B5024801F010FA10BD000069
:1019F0001C4C000829B1064AD2690243044BDA6143
:101A000004E0034AD2698243014BDA617047000067
:101A10000010024029B1064A12690243044B1A61C0
:101A200004E0034A12698243014B1A6170470000C7
:101A30000010024029B1064A92690243044B9A61A0
:101A400004E0034A92698243014B9A6170470000A7
:101A50000010024030B500210022002400232D4D4B
:101A60006D6805F00C0121B1042905D0082923D1A6
:101A700005E0294D056022E0274D05601FE0254D5A
:101A80006D6805F47012234D6D6805F480340225ED
:101A900005EB92421CB9214D554305600BE01D4DED
:101AA0006D6805F400351DB11C4D5543056002E01D
:101AB000194D5543056002E0174D056000BF00BF9A
:101AC000144D6D6805F0F0010909154D6B5C056852
:101AD000DD4045600F4D6D6805F4E061090A104D69
:101AE0006B5C4568DD4085600A4D6D6805F46051AA
:101AF000C90A0B4D6B5C4568DD40C560054D6D68DE
:101B000005F44041890B074D6B5CC568B5FBF3F5E7
:101B1000056130BD0010024000127A0000093D004E
:101B20000A0000201A0000200021082114E000F023
:101B300080021AB180220A4B1A6003E08022084B0F
:101B40001B1D1A602022064B1B1D1A601B1F1A60EA
:101B50004206100E4A1ED1B20029E8DC7047000090
:101B600010080140704710B500F002F810BD0000E9
:101B70000CB50020019000903348006840F480309C
:101B80003149086000BF3048006800F40030009020
:101B90000198401C0190009818B90198B0F5A06F09
:101BA000F1D12948006800F4003010B10120009004
:101BB00001E0002000900098012843D123480068EC
:101BC00040F01000214908600846006820F003003A
:101BD00008600846006840F0020008601A48406843
:101BE000194948600846406848600846406840F423
:101BF000806048600846406820F47C1048600846D1
:101C0000406840F4E81048600846006840F0807082
:101C1000086000BF0C48006800F000700028F9D090
:101C20000948406820F003000749486008464068BA
:101C300040F00200486000BF0348406800F00C001C
:101C40000828F9D10CBD000000100240002002401D
:101C5000042808D14FF0E021096941F004014FF058
:101C6000E022116107E04FF0E021096921F0040151
:101C70004FF0E022116170477047000010B5044634
:101C80006FF00400FFF7E4FFE11704EB5171C1F3BB
:101C9000C701074A11701046007800EB4001C1EB04
:101CA000C0104FF6FF7101EAC0000249088010BD64
:101CB000300000203200002010B51348006840F0CA
:101CC00001001149086008464068104908400E4963
:101CD0004860084600680E4908400B4908600846FD
:101CE000006820F4802008600846406820F4FE0068
:101CF00048604FF41F008860FFF735FF4FF0006029
:101D00000449086010BD0000001002400000FFF808
:101D1000FFFFF6FE08ED00E010B540F22551114836
:101D200000F039F901280BD10E4800F0EFF9C4B2E8
:101D30002046FFF7F7FD40F225510A4800F003F96D
:101D40000821084800F01AF901280AD1054800F0D6
:101D5000DDF9C4B22046FFF7E5FD0821014800F097
:101D6000E9F810BD0038014010B586B004460121E5
:101D70000420FFF75FFE01218803FFF75BFE4FF4AD
:101D80000070ADF8140003208DF8160018208DF8AF
:101D9000170005A91E48FFF765FA4FF48060ADF8FB
:101DA000140004208DF8170005A91948FFF75AFA06
:101DB00001940020ADF80800ADF80A00ADF80C0061
:101DC000ADF810000C20ADF80E0001A9114800F08C
:101DD00031F901210F4800F0C5F840210D4800F00D
:101DE000A9F8012240F225510A4800F0FEF825200A
:101DF0008DF8000003208DF801008DF8020001200D
:101E00008DF803006846FFF7A9FD06B010BD00007D
:101E1000000801400038014010B540F2255111483A
:101E200000F0B9F801280BD10E4800F06FF9C4B2E8
:101E3000204600F0D3FF40F225510A4800F083F815
:101E40000821084800F09AF801280AD1054800F056
:101E50005DF9C4B2204600F0C1FF0821014800F03E
:101E600069F810BD0044004010B586B00446012159
:101E70001420FFF7DFFD01214804FFF7BBFD8020A0
:101E8000ADF8140010208DF8170003208DF816000F
:101E900005A92548FFF7E6F90420ADF8140018203D
:101EA0008DF8170005A92148FFF7DCF90820ADF8E7
:101EB000140004208DF8170005A91C48FFF7D2F97B
:101EC00001214804FFF7A6FD00214FF40030FFF781
:101ED000A1FD01940020ADF80800ADF80A00ADF8AE
:101EE0000C00ADF810000C20ADF80E0001A9104850
:101EF00000F0A0F826208DF8000002208DF80100E7
:101F00008DF8020001208DF803006846FFF726FDDA
:101F1000012240F22551064800F067F801210448EB
:101F200000F020F806B010BD00100140000801408C
:101F30000044004001F40072B2F5007F00D100BF00
:101F4000CA430280704710B50022002340F66A148D
:101F5000A14200D100BF0A1201249440A3B2DC4385
:101F6000048010BD21B1828942F40052828104E0D4
:101F700082894DF6FF731A40828170470246002025
:101F8000B1F5007F00D100BF13880B400BB10120D9
:101F900000E00020704770B50246002400230025B1
:101FA000002040F66A16B14200D100BFC1F34215CD
:101FB00001F01F03012606FA03F3012D02D19689D1
:101FC000334006E0022D02D1168A334001E0968AA2
:101FD00033400C12012606FA04F41688344013B17B
:101FE0000CB1012000E0002070BDF0B503460024D4
:101FF00000260025002040F66A17B94200D100BF34
:102000001846C1F3421401F01F06012707FA06F52E
:10201000012C01D10C3004E0022C01D1103000E081
:1020200014301AB107682F43076002E00768AF4316
:102030000760F0BD2DE9F04786B005460E46002446
:10204000A24600BFA1460027B08900B100BF2F46BD
:102050002C8A4CF6FF700440F08804432C82AC8933
:102060004EF6F3100440B088318908437189084363
:102070000443AC81AC8A4FF6FF400440B08904436E
:10208000AC8201A8FFF7E6FC1F48874202D1DDF8C9
:1020900010A001E0DDF80CA0A88900F4004040B1D8
:1020A0000AEBCA0000EB0A1031684900B0FBF1F8F6
:1020B00007E00AEBCA0000EB0A1031688900B0FBA8
:1020C000F1F86420B8FBF0F004012009642101FB61
:1020D0001089A88900F4004040B1322000EBC9000B
:1020E000B0FBF1F000F00700044308E0322000EB01
:1020F00009106421B0FBF1F000F00F0004432C81C3
:1021000006B0BDE8F087000000380140014688882D
:10211000C0F308007047C1F30802828070470000D6
:102120000BE000BF0749098801F040010029F9D000
:102130000178044A121D1180401C01780029F0D159
:10214000704700000044004000BFFEE70FB4054B9D
:1021500010B503A9044A029800F0DEF810BC5DF83F
:1021600014FB00009D2A0008340000200FB4084B27
:1021700010B504A902AA039800F0CEF8044602A9FB
:10218000002000F060FC204610BC5DF814FB00004D
:10219000472A000802E008C8121F08C1002AFAD125
:1021A00070477047002001E001C1121F002AFBD1D7
:1021B000704700002DE9FF5FDDE90220010DDDF829
:1021C00038B0024318D044F61050A1F2FF31414319
:1021D0000D140F98012820D0A5EB0B00401C5FEADE
:1021E000000A4FF00004474EDFF81C91A04650460D
:1021F00016D5CAF1000728E00F98012443A2012850
:1022000008D0002100980F9BC0E90021C0E90243DB
:10221000BDE8FF9F6FEA0B01F4E7CBF10000DEE7BA
:10222000074612E0F80707D02246334640464946A3
:10223000FEF744F980468946224633461046194641
:10224000FEF73CF904460E467F10002FEAD1DDE987
:102250000201BAF1000F42464B4602DAFEF72EF9B0
:1022600001E0FEF79DF904460E460022284BFEF7DA
:102270001FFA03D84FF0FF30014607E00022254B3C
:1022800020463146FEF773F8FEF7F9F9102409E00D
:10229000002C0ADB0A220023FEF701F8019B3032F2
:1022A0001A55641E50EA0102F2D1641C019AC4F16D
:1022B000110314440F9A012A03D0012208430DD1BF
:1022C0000AE0084304D000204FF0110B0F9080E784
:1022D000A3EB0B056D1E0DE05B4504DD4FF0000226
:1022E00005F1010504E003DA4FF00002A5F1010554
:1022F000002AECD000980F99C0E90231C0E90045EE
:1023000086E70000000024400000F03F300000009D
:102310000000F0430000E03F2DE9FF4F95B09B46E1
:102320008946064600250FE2252877D10024274656
:10233000F84A0121059400E0044316F8013F203BD0
:1023400001FA03F01042F7D130782A2811D06FF04B
:102350002F033078A0F13002092A16D8059A44F0EC
:10236000020402EB820203EB42021044761C059049
:10237000EFE759F8042B0592002A03DA504244F49F
:102380000054059044F00204761C30782E2816D1B3
:1023900016F8010F44F004042A280DD06FF02F0224
:1023A0003078A0F13003092B09D807EB870302EB43
:1023B0004303C718761CF3E759F8047B761C307882
:1023C0006C280FD006DC4C2817D068280DD06A285E
:1023D00014D104E0742810D07A280FD10DE044F411
:1023E00000140AE044F4801401E044F440147278CC
:1023F000824202D104F58014761C761C307866285F
:102400000BD013DC582877D009DC002875D045287C
:10241000F6D04628F4D047281AD19DE118E0632869
:1024200035D0642879D0652812D195E1702873D011
:1024300008DC6728F1D069286FD06E280DD06F288E
:1024400006D1B5E073282CD0752875D0782874D0C3
:102450005A46179990476D1C75E1C4F30250022843
:1024600009D003280DD0D9F8001004280DD00D6034
:1024700009F1040967E1D9F80010EA17C1E900522F
:10248000F6E7D9F800100D80F2E70D70F0E719F8C3
:10249000041B8DF8001000208DF80100EA46012091
:1024A00003E059F804AB4FF0FF3061074FF0000133
:1024B00002D40DE008F101018846B9420FDA8045E7
:1024C000F8DB1AF808100029F4D108E008F101013E
:1024D00088468142FADB1AF808100029F6D10598DF
:1024E0005B46A0EB080721463846179A00F094FA9D
:1024F000284400EB080507E04DE029E10DE01AF85B
:10250000010B5A4617999047B8F10108F7D25B467C
:1025100021463846179A13E142E00A220092C4F39A
:1025200002524FF0000A022A08D059F804CB032ABD
:102530004FEAEC710AD00DE029E02AE009F1070129
:1025400021F00702F2E802C1914609E00FFA8CFC83
:102550004FEAEC71042A03D14FFA8CFC4FEAEC717C
:10256000002907DA0A460021DCF1000C61EB0201C8
:102570002D2202E0220504D52B228DF80420012211
:1025800003E0E20701D02022F7E7904659E00A2154
:1025900002E010220DE010214FF0000A00910BE044
:1025A00010224FF0000A44F004040827009203E0D0
:1025B00008224FF0000A0092C4F30252022A05D00A
:1025C00059F804CB0021032A08D009E009F10701DA
:1025D00021F00702F2E802C1914605E01FFA8CFCE7
:1025E000042A01D10CF0FF0C4FF00008220728D577
:1025F000702806D0009B83F0100353EA0A0305D02D
:102600000EE040228DF80420012208E05CEA01027D
:1026100006D030228DF804208DF805000222904665
:10262000009B83F0080353EA0A030AD15CEA010223
:1026300001D1620705D530228DF804204FF0010842
:102640007F1E582804D034A003900EA802900DE0FD
:1026500036A0F9E753466046009AFDF720FE84460F
:102660000398825C0298401E029002705CEA0100AE
:10267000F0D1029806A9081A00F1200A600702D5D5
:1026800024F4803400E00127574502DDA7EB0A005F
:1026900000E0002000EB0A01009005984144401A38
:1026A0000590E00306D45B462146179A059800F092
:1026B000B3F90544002706E001A85A46C05D179902
:1026C00090476D1C7F1C4745F6DBE0030CD55B464D
:1026D0002146179A059800F09FF9054404E0302040
:1026E0005A46179990476D1C0099481E0090002982
:1026F000F5DC08E0029802995A460078491C0291DC
:10270000179990476D1CBAF10001AAF1010AF1DC9A
:1027100065E10000092801003031323334353637A5
:10272000383961626364656600000000303132331D
:1027300034353637383941424344454600000000BD
:1027400000F058F90544761C307800287FF4ECAD91
:1027500019B02846BDE8F08F620700D4062709F1BA
:10276000070222F0070CFCE80223E14603F00048D0
:102770005FEA080C02D00FF2702C0DE05FEA045CF7
:1027800002D50FF2682C07E05FEAC47C02D00FF29A
:10279000602C01E0AFF2700C4FF0FF3823F00043E3
:1027A000CDF850C065280CD006DC452809D0462855
:1027B0001DD047283DD13DE0662818D067287ED13E
:1027C00038E00021112F01DB112000E0781CCDE959
:1027D000000106A90EA8FFF7EDFCDDE90F010E9A36
:1027E00003910021009207F1010A04914DE04FF09E
:1027F00000400097CDE9011006A90EA8FFF7DAFC0A
:10280000DDE90F0203920E9B11990022DDF80CA066
:102810000093049211B9791C00EB010AB7EB0A008E
:1028200004D4C0F1FF3007F1010A0490AAEB0700BD
:10283000019044E0012F00DA01270021112F01DD72
:10284000112000E03846CDE9000106A90EA8FFF7E7
:10285000B1FCDDE90F010E9A039100210491009271
:10286000BA4621070CD40399514500DA8A46BAF1D9
:10287000010F05DD009AAAF10101515C302908D051
:10288000B84202DA10F1040F06DA0121CDE9011095
:1028900015E0AAF10101E9E7002805DC04990144EB
:1028A0000491AAEB000102E0411C514500DD8A467B
:1028B0000499401A401C01904FF0004002902007FC
:1028C00004D40198504501DBCDF8048000208DF838
:1028D0004F0002980DF14F07B0F1004F25D02B208B
:1028E0000E9002984FF0020800280CDA4042029045
:1028F0002D200E9007E00A210298FDF7BAFC303136
:10290000029007F8011DB8F10001A8F10108F2DCFE
:1029100002980028EFD1791E0E980870307800F0E8
:10292000200040F0450007F8020D12A8C01B00F17E
:1029300007081498007800B1012000EB0A01019803
:1029400001EBE07105984144401A401E0590E003F8
:1029500006D45B462146179A059800F05DF80544B9
:102960001498007818B15A46179990476D1CE003E7
:1029700024D55B462146179A059800F04DF805448A
:102980001CE00498002807DBDDE90301884203DD31
:102990000098405C179901E0179930205A469047FB
:1029A000049805F10105401C04900198401E019017
:1029B00004D12E205A46179990476D1CBAF1000198
:1029C000AAF1010ADDDC05E017F8010B5A46179958
:1029D00090476D1CB8F10001A8F10108F4DC5B46DA
:1029E0002146179A0598ABE62D0000002B00000049
:1029F000200000002DE9F041044600251E46174640
:102A0000880404D405E039462020B0476D1C641EBC
:102A1000F9D52846BDE8F0812DE9F04104460025AE
:102A20001E469046C80301D5302700E020278804C1
:102A300004D505E041463846B0476D1C641EF9D503
:102A40002846BDE8F0810A68531C0B60107070477F
:102A50000146114A12884A434FF0E0235A6100228E
:102A60009A611A46126942F001021A6100BF4FF0E2
:102A7000E022106900F001021AB100F48032002A4D
:102A8000F5D04FF0E022126922F001024FF0E0236E
:102A90001A6100229A6170473200002070B5044626
:102AA0000D46E1B20548FFF736FB00BF8021034821
:102AB000FFF764FA0028F9D0204670BD00380140C5
:102AC0001FB500254820FFF7D9F84FF4A060FEF7A6
:102AD0007DFFFEF773FDFEF7B0FD4FF48060824985
:102AE0000860FEF77FFF81A04EF67D731F220E2146
:102AF00000900020FEF744FC81A04EF67D731F225B
:102B00001E2100900020FEF73BFC82A04EF67D7354
:102B10001F222E2100900020FEF732FC82A04EF6EC
:102B20007D731F223E2100900020FEF729FC83A028
:102B30004EF67D731F224E2100900020FEF720FCF0
:102B40004FF41650FFF710F94FF4E130FFF78CF90E
:102B50007FA0FFF7FBFAFEF78FF8FEF743FAFDF7C9
:102B60005FFEC0E0681CC5B2322095FBF0F100FBAF
:102B7000115000287ED17B484178007801EB00207D
:102B8000794908800846048842F21070844210DDBA
:102B9000221A76A101A8FFF7E9FA01A84EF67D7383
:102BA0001F220E2100900020FEF7EAFB2046FEF7D0
:102BB000B3FA6C48C178807801EB00206F49088037
:102BC0000846048844F62060844210DD221A6CA175
:102BD00001A8FFF7CBFA01A84EF67D731F221E2134
:102BE00000900020FEF7CCFB2046FEF795FA5D48EA
:102BF0004179007901EB0020654908800846048886
:102C000047F23050844210DD221A62A101A8FFF77A
:102C1000ADFA01A84EF67D731F222E2100900020F0
:102C2000FEF7AEFB2046FEF777FA4E48C179807971
:102C300001EB00205B4908800846048849F64040C3
:102C400084421EDD201AFDF7F8FA81465649FDF749
:102C5000B6FA0646FDF7FAFA07463A460B4653A17E
:102C600001A8FFF783FA01A84EF67D731F223E21CB
:102C7000009000E034E00020FEF782FB2046FEF7E3
:102C80004BFA3848417A007A01EB00204C49088021
:102C9000084604884CF2503084421CDD201AFDF7AF
:102CA000CCFA81464749FDF78AFA0646FDF7CEFA87
:102CB00007463A460B4644A101A8FFF757FA01A878
:102CC0004EF67D731F224E2100900020FEF758FB28
:102CD0002046FEF721FA0A20FFF7BAFEFEF786FA31
:102CE0000A20FFF7B5FE3DE7100C0140B5AABAACCB
:102CF000C1BF3A202020206D672F6B6700000000C5
:102D0000C1D7BAACC1BF3A202020206D672F6B67B6
:102D100000000000BCD8BAACC1BF3A202020206D12
:102D2000672F6B6700000000CEC2B6C820203A2093
:102D3000202020202020B6C800000000CAAAB6C863
:102D400020203A202020202020255248000000008A
:102D5000B4AEBFDAB3F5CABCBBAFCDEAB3C90D0A96
:102D600000000000B404002000000020B5AABAACA6
:102D7000C1BF3A2534646D672F6B670002000020E5
:102D8000C1D7BAACC1BF3A2534646D672F6B6700F9
:102D900004000020BCD8BAACC1BF3A2534646D67CA
:102DA0002F6B67000600002000002041CEC2B6C88D
:102DB00020203A20202025322E3166B6C80000009F
:102DC000080000200000C842CAAAB6C820203A2045
:102DD000252E326625255248200000000A49D1F8E8
:102DE0000411FF2904D90021074AC2F804110AE09E
:102DF0000549D1F80421D1F80411491C024BC3F84C
:102E00000411194688547047840700202DE9704347
:102E100005464FF6FF70FEF7F7FB4FEAC71C0CF1B3
:102E20007F0C1FFA8CF34FEAC61C0CF17F0C1FFAC3
:102E30008CF24FEAC75C4FEA1C414FEAC65C4FEA8E
:102E40001C40FEF71DFD00240AE015F8149005EB68
:102E5000440090F8018049EA0820FEF797FB641CC3
:102E6000B4F5804FF1DBBDE8708300000000000086
:102E70000000000000000000000000101010101002
:102E80001010101000001010000000006C6C2424C2
:102E9000000000000100000000000024242424FEA3
:102EA00048484848FC909090900000103C54929004
:102EB000503814121292547810000000225C94A82A
:102EC000481010242A52548800000000304848500E
:102ED000206E54948C888A740000000030301010EA
:102EE0000000000000000000000000040810102096
:102EF00020202020201010080400008040202010F6
:102F0000101010101020204080000000000010540D
:102F1000381038541000000000000000001010109D
:102F200010FE101010100000000000000000000053
:102F30000000000000001010200000000000000051
:102F400000FE000000000000000000000000000083
:102F50000000000000001010000000000404080839
:102F60001010202040408080000000003844828201
:102F70008282828282824438000000001070101029
:102F8000101010101010107C0000000038448282D5
:102F900004081020408284FC0000000038448202B3
:102FA000043804020282443800000000040C1414A7
:102FB00024244444FE04040E00000000FC808080B1
:102FC000B8C4820202828478000000003C42828001
:102FD000B8C4828282824438000000007E428204AB
:102FE0000408080810101010000000003844828205
:102FF000443844828282443800000000384482828F
:103000008282463A0282443800000000000010101C
:103010000000000010100000000000000000101070
:103020000000000000101020000000000000061842
:103030006080601806000000000000000000000032
:10304000FE0000FE00000000000000000000C03094
:103050000C020C30C00000000000003844828202E4
:103060000408101010001010000000003844829A6C
:10307000AAAAAAAAAA9680423C0000001010102812
:10308000282844447C4444EE00000000FC424242B4
:10309000427C4242424242FC000000003C448280AA
:1030A000808080808282443800000000F8444242E0
:1030B00042424242424244F800000000FC44424086
:1030C000447C4440404244FC00000000FC44424038
:1030D000447C4440404040F000000000344C82807A
:1030E00080808E8484844C3400000000EE4444448C
:1030F000447C4444444444EE000000007C10101022
:10310000101010101010107C000000003E0808087D
:10311000080808080888887000000000EE44484845
:1031200050605048484444EE00000000E0404040F9
:1031300040404040404244FC00000000C6446C6CEB
:103140006C545454444444EE00000000CE44646483
:103150006454544C4C4C44E40000000038448282D7
:10316000828282828282443800000000F844424217
:1031700042447840404040E00000000038448282F1
:103180008282828282BA443C02000000F0484444B9
:1031900044487048444444E6000000003C448280B7
:1031A00040300C0202824478000000007C549210EF
:1031B000101010101010103800000000EE444444AD
:1031C000444444444444443800000000EE44444431
:1031D000442828282810101000000000EE44545401
:1031E000545454542828282800000000EE44442851
:1031F00028101028284444EE00000000EE44442823
:103200002828101010101038000000007E44840898
:1032100008102020408284FC0000001C10101010B8
:1032200010101010101010101C000000EE44545428
:10323000FE54545428282828000000701010101044
:103240001010101010101010700000304884000092
:10325000000000000000000000000000000000006E
:103260000000000000000000FE0000402000000000
:10327000000000000000000000000000000000004E
:103280007884047C84848C7600000000C040404038
:1032900058644242424264580000000000000000AE
:1032A0003844808080804438000000000C0404040E
:1032B000344C848484844C360000000000000000FC
:1032C000788484FC8080847800000000182420200A
:1032D000F8202020202020700000000000000000C6
:1032E0003A444478807C82827C000000C0404040A8
:1032F00058644444444444EE0000000010100000B0
:1033000030101010101010380000000010100000D5
:10331000301010101010109060000000C0404040AD
:103320005C485060504844EE00000000301010101F
:1033300010111010101010390000000000000000E3
:10334000ACD29292929292D600000000000000004F
:1033500058E44444444444EE0000000000000000EF
:10336000384482828282443800000000000000005D
:10337000D864424242645840E0000000000000006F
:10338000364C8484844C34040E000000000000009D
:103390006C30202020202070000000000000000081
:1033A0007888846018844478000000000020202081
:1033B000F820202020202418000000000000000039
:1033C000C64242424242463A00000000000000006D
:1033D000EE444428282810100000000000000000DF
:1033E000EE44445454282828000000000000000047
:1033F000EE442810102844EE0000000000000000F9
:10340000EE444428281010A0C00000000000000076
:103410007E448810204284FC0000000C1010101024
:1034200010601010101010100C0000101010101070
:103430001010101010101010100000C020202020BC
:103440002018202020202020C000000000000000C4
:1034500000728C000000000000000000000000006E
:103460001FE000003FF000003FF000001FE00001FF
:1034700080060003C00F0003C00F0003C00F00034D
:10348000C00F0003C00F0003C00F0003C00F0003F4
:10349000C00F000300030000000000000000000057
:1034A0000000000300030003C00F0003C00F00036F
:1034B000C00F0003C00F0003C00F0003C00F0003C4
:1034C000C00F0003C00F0001800600001FE00000D5
:1034D0003FF000003FF000001FE00000000000008F
:1034E0000000000000800000018000000380000058
:1034F00007800000078000000780000007800000B0
:10350000078000000780000007800000078000009F
:1035100007800000018000000000000000000000A3
:10352000000000000180000007800000078000000C
:10353000078000000780000007800000078000006F
:103540000780000007800000078000000380000063
:10355000018000000080000000000000000000006A
:103560001FE000003FF00000FFF00001FFE000005E
:1035700000060000000F0000000F0000000F000018
:10358000000F0000000F0000000F0000000F0000FF
:10359000000F00001FE300007FF800007FF800002C
:1035A0001FE0000300000003C0000003C000000390
:1035B000C0000003C0000003C0000003C0000003FF
:1035C000C0000003C0000001800000001FF00000E8
:1035D0003FF800003FFC00001FFE00000000000359
:1035E000FF800001FFC00000FFC000007F800000DE
:1035F00000180000003C0000003C0000003C0000FF
:10360000003C0000003C0000003C0000003C0000CA
:10361000003C00007F8C0001FFE00001FFF0000093
:103620007F800000000C0000003C0000003C000017
:10363000003C0000003C0000003C0000003C00009A
:10364000003C0000003C0000001800007F800000EB
:10365000FFC00001FFC00003FF8000000000000069
:1036600000000002000100030003000380070003C4
:10367000C00F0003C00F0003C00F0003C00F000302
:10368000C00F0003C00F0003C00F0003C00F0003F2
:10369000C00F00031FE300007FF800007FFC000064
:1036A0001FE0000000030000000F0000000F0000FA
:1036B000000F0000000F0000000F0000000F0000CE
:1036C000000F0000000F0000000F000000070000C6
:1036D00000030000000100000000000000000000E6
:1036E0001FFC00003FF800003FF000001FE0000159
:1036F00080000003C0000003C0000003C0000003FE
:10370000C0000003C0000003C0000003C0000003AD
:10371000C00000031FE000007FF800007FF80000F9
:103720001FE0000000030000000F0000000F000079
:10373000000F0000000F0000000F0000000F00004D
:10374000000F0000000F0000000600003FE0000036
:103750007FF00000FFF00001FFE00000000000002B
:103760001FFC00003FF800003FF000001FE00001D8
:1037700080000003C0000003C0000003C00000037D
:10378000C0000003C0000003C0000003C00000032D
:10379000C00000031FE000007FF800007FFC000075
:1037A0001FE0000300030003C00F0003C00F00036D
:1037B000C00F0003C00F0003C00F0003C00F0003C1
:1037C000C00F0003C00F0001800600001FE00000D2
:1037D0003FF000003FF000001FE000000000000785
:1037E000FFE00003FFC00001FF880000FF18000099
:1037F0000038000000780000007800000078000029
:1038000000780000007800000078000000780000D8
:103810000078000000180000000000000000000018
:103820000000000000180000007800000078000090
:1038300000780000007800000078000000780000A8
:1038400000780000007800000078000000380000D8
:103850000018000000080000000000000000000048
:103860001FE000003FF000003FF000001FE00001FB
:1038700080060003C00F0003C00F0003C00F000349
:10388000C00F0003C00F0003C00F0003C00F0003F0
:10389000C00F00031FE300007FF800007FFC000062
:1038A0001FE0000300030003C00F0003C00F00036C
:1038B000C00F0003C00F0003C00F0003C00F0003C0
:1038C000C00F0003C00F0001800600001FE00000D1
:1038D0003FF000003FF000001FE00000000000008B
:1038E0001FE000003FF000003FF000001FE000017B
:1038F00080060003C00F0003C00F0003C00F0003C9
:10390000C00F0003C00F0003C00F0003C00F00036F
:10391000C00F00031FE300007FF800007FFC0000E1
:103920001FE0000000030000000F0000000F000077
:10393000000F0000000F0000000F0000000F00004B
:10394000000F0000000F0000000600001FE0000054
:103950003FF000007FF00000FFE0000000000000EA
:103960000000000000000000000000000000000057
:103970000000000000000000000000000000000047
:103980000000000000000000000000000000000037
:103990000000000000000000000000000000000027
:1039A0000000000000000000000000000000000017
:1039B0007800000078000000780000007800000027
:1039C0007800000078000000000000000000000007
:1039D00000000000000000000000000000000000E7
:1039E00000000000000000000000000000000000D7
:1039F00000000000000000000000000007000000C0
:103A00000F8000000F8000000F8000000700000002
:103A100000000000000000000000000000000000A6
:103A20000000000000000000070000000F80000000
:103A30000F8000000F800000070000000000000061
:103A40000000000000000000000000000000000076
:103A50000000000000000000000000000000000066
:103A6000000000000000000000000007C006000F7A
:103A7000E0060000000C0030181800301818003064
:103A800018300030183000301860003008C00007CF
:103A9000C0C0000FE080000000000000000FE00048
:103AA0000607C000063018000C3018000C30180053
:103AB0001830180030301800303018006000000056
:103AC000C00FE000C007C0000000000000000000C0
:103AD00000000000000000000000000000000000E6
:103AE00000000000000000000000000000000000D6
:103AF0000000000700E0000887FC00088E030008B3
:103B0000980180071800800030000000300000009D
:103B10007000000060000000600000006000000015
:103B20006000000060000000700000003000000035
:103B30003000000038000000180100000C030000F5
:103B400007FC000001F00000000000000000000081
:103B50000000000000000000000000000000000065
:103B60000000000000000000000000000000000055
:103B70000000000000000000000000000000000045
:103B80000000000000000000000000000000000035
:103B900000000000000000003FF000007FF0000087
:103BA0007FE00000FFC000000000000000000000F7
:103BB0000000000000000000000000000000000005
:103BC00000000000000000000000000000000000F5
:103BD000000000000000000000000000CEF7000020
:103BE000FFFE0440044004403FF824482448244891
:103BF000244828383008200820083FF82008B0B2B0
:103C0000020001003FFC2004420802000200FFFE07
:103C10000420082018400640018002600C10700843
:103C2000BFC608101D10F09010901010FD101090DD
:103C300038903410501E53F09010101010101010C7
:103C40001010BCBC10201020102013FEFC201020EF
:103C5000102015FC18843088D048105010201050C7
:103C600051882606B4F301000100010001000100A3
:103C7000FFFE010001000280028004400440082091
:103C800010102008C006D1A722081108111000202A
:103C90007FFE400280041FE000400180FFFE010023
:103CA0000100010005000200CDA8000047F8201027
:103CB00021A0004007FCE444244427FC244424447D
:103CC00027FC2444245454088FFED0C50840082003
:103CD0000BFE1000100031FC3000500091FC100071
:103CE000100011FC1104110411FC1104BFC60810CE
:103CF0001D10F09010901010FD101090389034109E
:103D0000501E53F090101010101010101010B4B47A
:103D10000804080414041224212440A4BE242224EC
:103D2000222422242A242424208420841F9400086E
:103D3000B0E000800080F8BE228822882288228895
:103D4000FABE2288248820883908E108423E04000F
:103D50000800B6AB0200020002007FFC040009006C
:103D6000110021003FF80100092011102108410431
:103D700005000200B0CB00000040044004400440B5
:103D800004400440042008200820081010101008E7
:103D9000200820044002C7F800007FFC40004010CB
:103DA000441042204140408041404220441048108D
:103DB000400040007FFE0000D0A101000100010092
:103DC0000100010011101108110421042102410217
:103DD00081020100010005000200D0A101000100E4
:103DE0000100010001001110110811042104210239
:103DF000410281020100010005000200B0D701006C
:103E0000020004003FF820082008200820083FF89E
:103E1000200820082008200820083FF82008B5AA1C
:103E200020003FFC40009FF000007FF00410249031
:103E30000B10109060500412248A0B0A1086604206
:103E4000C1D700200124F8A823FE20A841247A220B
:103E50004904C90449DE4A444D54789E4904020489
:103E60000404BCD8100011FC3D2421244124BDFCD5
:103E700011241124FD2411FC1124102014201820D9
:103E800010200020BAAC01000100028004400A208A
:103E90003118C1060FE0004000801FF01010101014
:103EA00010101FF01010C1BF00001FF010101FF005
:103EB0001010FFFE00001FF011101FF011101FF076
:103EC00001001FF001007FFCCBAE010001000100EA
:103ED000010801087D9005A009400940112011103A
:103EE00021084106810005000200B1C30000FFFE69
:103EF000040008001FF02810C8100FF00100010492
:103F00007D88095011202118C5060200B9A600407D
:103F100000400040FE4011FC104410441044104486
:103F2000108410841E84F104410402280410C2CAC3
:103F3000020001007FFC020044442F881110224837
:103F40004FE400200100FFFE01000100010001001C
:103F5000CEC2000023F81208120883F84208420873
:103F600013F8100027FCE4A424A424A424A42FFE06
:103F70000000CAAA000027F81408140887F84408AB
:103F8000440817F811202120E92425282330212076
:103F90002FFE0000B6C8010000803FFE2220222034
:103FA0003FFC2220222023E020002FF0241042207A
:103FB00041C08630380EB5E70200020002007FF0F3
:103FC000421042107FF0421042107FF0420002087F
:103FD000020801F800000000D7D37FF00020004065
:103FE000008001000200FFF802000200020002004F
:103FF000020002000E0000000000C8AB010001003A
:1040000002800440082010102FE8C10601000100C2
:104010001FF00100010001007FFC0000B6AF00406E
:1040200000407C40004001FC0044FE442044204409
:10403000208448844484FD04450402280410BCBC48
:1040400010201020102013FEFC201020102015FC42
:1040500018843088D04810501020105051882606FF
:10406000CAF501000120011001107FFC038005400A
:10407000054009201110210841040102010001003E
:104080000100D2BA0080404027F8114001408278F8
:10409000424816A81AD023502220422042500288BB
:1040A00000000000BEA73FE020203FE020203FE0CE
:1040B0000000FDF885088508FDF885088508FDF8ED
:1040C000850800000000B2E200084F8828880AA88E
:1040D0008AA84AA80AA82AA82AA8422845088488A3
:1040E0008888103800000000CAD440502048204082
:1040F0000FF80040E04027402240224022202A289A
:1041000033A82E18000800000000B3CC00001BF0FC
:10411000E210221023F0F800200033F06880608065
:10412000A3F02080208027F800000000D0F20200D9
:1041300001003FF820002FF02020224021803FF88E
:104140002088209040804080838000000000D1D5EE
:10415000200010F87E20444028F87E8848A850A807
:1041600064A848A872A8845018886108000000005C
:10417000C9AB100010003FE0404080807FF042104B
:10418000421042107FF04000400840083FF8000015
:104190000000CCEE20802FF8208027F0F41027F0CC
:1041A000241027F0241027F03410CFF80220041038
:1041B00000000000B3E404000200FFF80800104013
:1041C00020207FF0089008800880088010882088D0
:1041D000C07800000000CEC4040002000200FFF816
:1041E000104010400880088005000200050008808B
:1041F0003060C01800000000D7D604000200FFF8AD
:10420000800880083FC0008001000200FFF8020023
:10421000020002000E0000000000CFD43FE020208A
:1042200020203FE0202020203FE008804890289078
:1042300028A008800880FFF800000000CABE000027
:104240003FE0000000000000FFF8020012401220D2
:1042500022104208820802000E0000000000CDBCBF
:104260007FF84008440847C84848548843084CC869
:10427000733840884C08430840887FF800000000ED
:10428000C6AC00802080208020803FF020002000ED
:1042900020003FC02040204020404040804000009F
:1042A0000000B4A520403840484091F07D50555062
:1042B00055507D5055F054407C40545057F88C0870
:1042C00000000000C3FE2220222027F8FA2027F059
:1042D000241027F03410E7F020802FF8214022200E
:1042E000EC1800000000CAE440804140F220441075
:1042F0008BE8A000F78824A827A834A8E7A824A85A
:10430000248825B800000000C8EB08000400040061
:1043100002000200050005000880088010401040DF
:1043200020204010800800000000C8AB02000200FE
:104330000500088010402020DFD8020002001FC0C6
:10434000020002000200FFF800000000B3CC0000F1
:104350001BF0E210221023F0F800200033F06880F8
:104360006080A3F02080208027F800000000BCBC03
:10437000208020802080F7F02080208027E03220DD
:10438000E2202140208021402220EC180000000083
:10439000CAF50200024002200200FFF807000A806E
:1043A0000A8012402220421082080200020000000F
:1043B0000000D6A702000200FFF8020002007FE022
:1043C00010201040088005000200050018C0E038E9
:1043D00000000000B3D62080208023F0F8802080E9
:1043E00027F828203020E7F8202022202120202034
:1043F000E0E000000000D7A8020002007FF0040007
:104400000400FFF8080010003FE0002000401C807E
:104410000300008000000000D7A2010040802000BF
:1044200017F0008080804080008017F0108020808E
:10443000208040804FF800000000C5FA2040244052
:104440002440F4482450276024403440E440244071
:10445000244025482648E43800000000B7A20200A6
:104460002220221044007FF8040008000FE01420EE
:1044700024404280810006C0383800000000B3C9E3
:1044800000A0009000807FF8408040907C90449095
:1044900044A044A0444858A84118820800000000E5
:1044A000B9A601000100F90023F02110211021100C
:1044B000211021103910C2100210041008600000F1
:1044C0000000D2C60000002000780CE47904516896
:1044D00010307E6019981A3C2FE448E40838003008
:1044E00000600000D1A100000120012003FC622037
:1044F0003420042003FC240021B021202220323E5D
:1045000018000FE00000D4F10000000010FC1304BC
:10451000110C3DF8703E10D015907CF0503E1810F4
:104520001BFE023000200000CFEE0000000003FE62
:1045300000607C4012FC11041106113611241F4446
:10454000794400C0009C01860000C4BF0000000048
:104550000FE03C18200820043E04600460047E0440
:104560006004200C20081FF001800000B6CC000081
:10457000080011FC103E3EF82D8C29044904090462
:104580003E8C50FC10881EC811FC100E0000B0B408
:1045900000000040006012FE13023A427F4410C443
:1045A0001BFE3C987190113011A00078004C000067
:1045B000C8B70000004000F878C41F8C313821ECE7
:1045C0002126413A7DE2272225FA3D2601240104D5
:1045D0000000B6A80000010001705FFC7004200418
:1045E0002FF801001100113821C431003F0063E0B1
:1045F00040380000B3A4000000000818086008C09C
:104600000B001E00181C7FF01000118010E01838FD
:10461000098E0F000000B0B400000040006012FEE0
:1046200013023A427F4410C41BFE3C987190113033
:1046300011A00078004C0000B7B50000000007F89A
:104640000600240014F8078C04042408261825F01A
:10465000647C64C220801FC00000BBD80000000042
:104660001FF030182008278C2C44284428442CC4E0
:1046700027842004300C1FF8038000000000000095
:10468000000000000000000000000000000000002A
:104690000000000000000000000000000000B4BFA7
:1046A000000000000000020100063FC00C3FE018BF
:1046B00003001002003336603726203E66301C644B
:1046C0003018642031FEE03F1FC01C0C00000C00BD
:1046D0000704003E07F00001C000000000000000D9
:1046E0000000000000000000C9AB00000000000056
:1046F00001FE0003E3000703000C03001C3F003B26
:10470000FFC03F30600C30200C30200C10200C100B
:10471000600FFFC0083F000800000800600E3FE087
:1047200007FC000000000000000000000000000086
:104730000000CCEE00000000000000030000FFE0DD
:104740000C07F00C06000CFF803FF0E01FC0600C6F
:10475000FE300CCC3004F83004FF2004C0201FFED3
:10476000603EC06001FFF001FFF0006060004000AB
:10477000000000000000000000000000B3E40000A2
:104780000000000000200000300007FFF03FFFE0C5
:104790000300000601800C01800801C01807E00F2B
:1047A000FE7007E000020600060400040400040492
:1047B000000C06700C07E000000000000000000084
:1047C000000000000000B2E2000000000000000055
:1047D0003039FC301FCC300706B00F06F01907B097
:1047E0003137B03136F01F27F00167F001E5F001F5
:1047F000E1F00041F00CF8B03CD830008C30008083
:104800003000000000000000000000000000000078
:10481000CAD40000000000000803600C03700C0301
:1048200030003FE0003F800801003C0180047F80B1
:10483000047D800C00800C10C00C10C00C18400CC3
:104840001C600F7E60067030000030000000000029
:1048500000000000000000000000CEC400000000C6
:10486000C00000E00000700001FFE01FFFC0180161
:1048700000000300000600000E00001C000E1800DF
:1048800007300001E00000F00000FC00018F000391
:1048900003C00201E0000000000000000000000072
:1048A00000000000D7D6000000000000002000003B
:1048B0003F0031FFE03FC02038003030FE2033C6DB
:1048C00060100200000C00001800001800000C002E
:1048D00007FFE03FFFE0000400000C00000C0000B8
:1048E0000000000000000000000000000000CFD425
:1048F00000000000000007FF000F03C00C00401F75
:10490000F8601800600800400E01C007FF000000BA
:10491000000184000184001987800F8CE0078C203F
:1049200000CC0003FFE01FFFC000000000000000FB
:104930000000000000000000CABE000000000000EF
:104940000E00001FFFC0007FE0000000000000001C
:104950000000000000003FC03FFFE00030000030DA
:10496000000030000613000C13C00C18F0181800DB
:104970001818000000000000000000000000000007
:104980000000CDBC00000000000007FF000F038006
:104990001CC0C019FC6011C66033062033E63036F7
:1049A000FF30301FF030703030FC30339F30360035
:1049B0002010E060187C400E01C003FF00003800AA
:1049C000000000000000000000000000C6AC000075
:1049D0000000000008180018080018080018080057
:1049E000180C201FFFF01FF8001800001000001026
:1049F000F8001FFE001E0300100300100300100348
:104A00000010030018020000000000000000000079
:104A1000000000000000CFD400000000000007FFED
:104A2000000F03C00C00401FF86018006008004031
:104A30000E01C007FF00000000018400018400197E
:104A400087800F8CE0078C2000CC0003FFE01FFF65
:104A5000C000000000000000000000000000000096
:104A6000CABE0000000000000E00001FFFC0007F53
:104A7000E0000000000000000000000000003FC057
:104A80003FFFE00030000030000030000613000C53
:104A900013C00C18F01818001818000000000000CF
:104AA00000000000000000000000B4A500000000AD
:104AB00000000601800FC1801E6180304FC020CFF2
:104AC000E0078D303FC9303379303379303FFB30E8
:104AD00037FF203267E03FE3803FE3C0326360325C
:104AE00067F0304FB0000000000000000000000040
:104AF00000000000C3FE0000000000000030C00005
:104B0000FFF00C79C00C1F800C7FE03FE0600CC010
:104B1000300CFC3004C03007C0301E60603C3FC029
:104B2000041C00047FE000FFE00030C00060600073
:104B30000000000000000000000000000000CAE4C7
:104B40000000000000000C03800C0FC0081C703F28
:104B500070001F9FC0101FC0100000367C3017E689
:104B6000301FE3B0067FB00277F007E3F03F7FF03D
:104B70001336F0032630032630000000000000004A
:104B80000000000000000000C8EB00000000000072
:104B900006000003800001C00000E000007000007B
:104BA000780000CC0000C6000183000301800700EC
:104BB000C00600E00C007018003018000030000043
:104BC00000000000000000000000000000000000E5
:104BD00000000000000000000000000000000000D5
:104BE00000000000000000000000000000000000C5
:104BF00000000000000000000000000000000000B5
:104C000000000000000000000000000000000000A4
:104C1000000000000000000000000000FFFFFFFF98
:104C2000FFFFFFFFFFFFFFFFFFFFFFFFFFFFFFFF94
:104C3000FFFFFFFFFFFFFFFFFFFFFFFFFFFFFFFF84
:104C4000FFFFFFFFFFFFFFFFFFFFFFFFFFFFFFFF74
:104C5000FFFFFFFFFFFFFFFFFFFFFFFFFFFFFFFF64
:10615000FFFFFFFFFFFFFFFFFFFFFFFFFFFFD80273
:10616000FFFFFFFFFFFFFFFFFFFFFFFFFFFFFFFF3F
:10617000FFFFFFFFFFFFFFFFFFFFFFFFFFFFFFFF2F
:10618000FFFFFFFFFFFFFFFFFFFFFFFFFFFFFFFF1F
:10619000FFFFFFFFFFFFFFFFFFFFFFFFFFFFFFFF0F
:1061A000FFFFFFFFFFFFFFFFFFFFFFFFFFFFFFFFFF
:1061B000FFFFFFFFFFFFFFFFFFFFFFFFFFFFFFFFEF
:1061C000FFFFFFFFFFFFFFFFFFFFFFFFFFFFFFFFDF
:1061D000FFFFFFFFFFFFFFFFFFFFFFFFFFFFFFFFCF
:1061E000FFFFFFFFFFFFFFFFFFFFFFFFFFFFFFFFBF
:1061F000FFFFFFFFFFFFFFFFFFFFFFFFFFFFFFFFAF
:10620000FFFFFFFFFFFFFFFFFFFFFFFFFFFFFFFF9E
:10621000FFFFFFFFFFFFFFFFFFFFFFFFFFFFFFFF8E
:10622000FFFFFFFFFFFFFFFFFFFFFFFFFFFFFFFF7E
:10623000FFFFFFFFFFFFFFFFFFFFFFFFFFFFFFFF6E
:10624000FFFFFFFFFFFFFFFFFFFFFFFFFFFFFFFF5E
:10625000FFFFFFFFFFFFFFFFFFFFFFFFD802D80296
:10626000D802D802FFFFFFFFFFFFFFFFFFFFFFFF86
:10627000FFFFFFFFFFFFFFFFFFFFFFFFFFFFFFFF2E
:10628000FFFFFFFFD802D802D802D802D802D802F6
:10629000D802D802D802D802D802D802D802D8022E
:1062A000D802D802D802D802D802D802D802D8021E
:1062B000D802D802FFFFFFFFFFFFFFFFFFFFFFFF36
:1062C000FFFFFFFFFFFFFFFFFFFFFFFFFFFFFFFFDE
:1062D000FFFFFFFFD802D8029FEFFFFFFFFFFFFF86
:1062E000FFFFFFFFFFFFFFFFFFFFFFFFFFFFFFFFBE
:1062F000FFFFFFFFFFFFFFFFFFFFFFFFFFFFFFFFAE
:10630000FFFFFFFFFFFFFFFFFFFFFFFFFFFFFFFF9D
:10631000FFFFFFFFFFFFFFFFFFFFFFFFFFFFFFFF8D
:10632000FFFFFFFFFFFFFFFFFFFFFFFFFFFFFFFF7D
:10633000FFFFFFFFFFFFFFFFFFFFFFFFFFFFFFFF6D
:10634000FFFFFFFFFFFFFFFFFFFFFFFFFFFFFFFF5D
:10635000FFFFFFFFFFFFFFFFFFFFBB5CD802D8027C
:10636000D802D802D802D802DFF7FFFFFFFFFFFFF5
:10637000FFFFFFFFFFFFFFFFFFFFFFFFFFFFFFFF2D
:10638000FFFFFFFFFFFFD802D802D802D802D802D1
:10639000D802D802D802D802D802D802D802D8022D
:1063A000D802D802D802D802D802D802D802D8021D
:1063B000D802FFFFFFFFFFFFFFFFFFFFFFFFFFFF11
:1063C000FFFFFFFFFFFFFFFFFFFFFFFFFFFFFFFFDD
:1063D000FFFFD802D802D802D802D802591BFFFF0B
:1063E000FFFFFFFFFFFFFFFFFFFFFFFFFFFFFFFFBD
:1063F000FFFFFFFFFFFFFFFFFFFFFFFFFFFFFFFFAD
:10640000FFFFFFFFFFFFFFFFFFFFFFFFFFFFFFFF9C
:10641000FFFFFFFFFFFFFFFFFFFFFFFFFFFFFFFF8C
:10642000FFFFFFFFFFFFFFFFFFFFFFFFFFFFFFFF7C
:10643000FFFFFFFFFFFFFFFFFFFFFFFFFFFFFFFF6C
:10644000FFFFFFFFFFFFFFFFFFFFFFFFFFFFFFFF5C
:10645000FFFFFFFFFFFFFFFFFFFFD802D802D802B8
:10646000D802D802D802D802D802D802FECEFFFF46
:10647000FFFFFFFFFFFFFFFFFFFFFFFFFFFFFFFF2C
:10648000FFFFFFFFFFFFF80AD802D802D802D802A8
:10649000D802D802D802D802D802D802D802D8022C
:1064A000D802D802D802D802D802D802D802D8021C
:1064B000F80AFFFFFFFFFFFFFFFFFFFFFFFFFFFFE8
:1064C000FFFFFFFFFFFFFFFFFFFFFFFFFFFFFFFFDC
:1064D000FFFFD802D802D802D802D802D802D802C8
:1064E000D802FFFFFFFFFFFFFFFFFFFFFFFFFFFFE0
:1064F000FFFFFFFFFFFFFFFFFFFFFFFFFFFFFFFFAC
:10650000FFFFFFFFFFFFFFFFFFFFFFFFFFFFFFFF9B
:10651000FFFFFFFFFFFFFFFFFFFFFFFFFFFFFFFF8B
:10652000FFFFFFFFFFFFFFFFFFFFFFFFFFFFFFFF7B
:10653000FFFFFFFFFFFFFFFFFFFFFFFFFFFFFFFF6B
:10654000FFFFFFFFFFFFFFFFFFFFFFFFFFFFFFFF5B
:10655000FFFFFFFFFFFFFFFF5DAED802D802D802AA
:10656000D802D802D802D802D802D802D802D8025B
:106570005C7DFFFFFFFFFFFFFFFFFFFFFFFFFFFF50
:10658000FFFFFFFFFFFFFFFFD802D802D802D802AB
:10659000D802D802D802D802D802D802D802D8022B
:1065A000D802D802D802D802D802D802D802D8021B
:1065B000FFFFFFFFFFFFFFFFFFFFFFFFFFFFFFFFEB
:1065C000FFFFFFFFFFFFFFFFFFFFFFFFFFFFFFFFDB
:1065D000D802D802D802D802D802D802D802D802EB
:1065E000D802D802D802FFFFFFFFFFFFFFFFFFFF27
:1065F000FFFFFFFFFFFFFFFFFFFFFFFFFFFFFFFFAB
:10660000FFFFFFFFFFFFFFFFFFFFFFFFFFFFFFFF9A
:10661000FFFFFFFFFFFFFFFFFFFFFFFFFFFFFFFF8A
:10662000FFFFFFFFFFFFFFFFFFFFFFFFFFFFFFFF7A
:10663000FFFFFFFFFFFFFFFFFFFFFFFFFFFFFFFF6A
:10664000FFFFFFFFFFFFFFFFFFFFFFFFFFFFFFFF5A
:10665000FFFFFFFFFFFFFFFFD802D802D802D802DA
:10666000D802D802D802D802D802D802D802D8025A
:10667000D802D802D802FFFFFFFFFFFFFFFFFFFF96
:10668000FFFFFFFFFFFFFFFFD802D802D802D802AA
:10669000D802D802D802D802D802D802D802D8022A
:1066A000D802D802D802D802D802D802D802D8021A
:1066B000FFFFFFFFFFFFFFFFFFFFFFFFFFFFFFFFEA
:1066C000FFFFFFFFFFFFFFFFFFFFFFFFFFFFFFFFDA
:1066D000D802D802D802D802D802D802D802D802EA
:1066E000D802D802D802D802D802FFFFFFFFFFFF6E
:1066F000FFFFFFFFFFFFFFFFFFFFFFFFFFFFFFFFAA
:10670000FFFFFFFFFFFFFFFFFFFFFFFFFFFFFFFF99
:10671000FFFFFFFFFFFFFFFFFFFFFFFFFFFFFFFF89
:10672000FFFFFFFFFFFFFFFFFFFFFFFFFFFFFFFF79
:10673000FFFFFFFFFFFFFFFFFFFFFFFFFFFFFFFF69
:10674000FFFFFFFFFFFFFFFFFFFFFFFFFFFFFFFF59
:10675000FFFFFFFFFFFF9FEFD802D802D802D80249
:10676000D802D802D802D802D802D802D802D80259
:10677000D802D802D8027DB6FFFFFFFFFFFFFFFF60
:10678000FFFFFFFFFFFFFFFFFFFFD802D802D80285
:10679000D802D802D802D802D802D802D802D80229
:1067A000D802D802D802D802D802D802D802FFFFF5
:1067B000FFFFFFFFFFFFFFFFFFFFFFFFFFFFFFFFE9
:1067C000FFFFFFFFFFFFFFFFFFFFFFFFFFFFD802FD
:1067D000D802D802D802D802D802D802D802D802E9
:1067E000D802D802D802D802D802D802D802FFFFB5
:1067F000FFFFFFFFFFFFFFFFFFFFFFFFFFFFFFFFA9
:10680000FFFFFFFFFFFFFFFFFFFFFFFFFFFFFFFF98
:10681000FFFFFFFFFFFFFFFFFFFFFFFFFFFFFFFF88
:10682000FFFFFFFFFFFFFFFFFFFFFFFFFFFFFFFF78
:10683000FFFFFFFFFFFFFFFFFFFFFFFFFFFFFFFF68
:10684000FFFFFFFFFFFFFFFFFFFFFFFFFFFFFFFF58
:10685000FFFFFFFFFFFFD802D802D802D802D802FC
:10686000D802D802D802D802D802D802D802D80258
:10687000D802D802D802FFFFFFFFFFFFFFFFFFFF94
:10688000FFFFFFFFFFFFFFFFFFFFD802D802D80284
:10689000D802D802D802D802D802D802D802D80228
:1068A000D802D802D802D802D802D802D802FFFFF4
:1068B000FFFFFFFFFFFFFFFFFFFFFFFFFFFFFFFFE8
:1068C000FFFFFFFFFFFFFFFFFFFFFFFFFFFFD802FC
:1068D000D802D802D802D802D802D802D802D802E8
:1068E000D802D802D802D802D802D8021DA6FFFFCB
:1068F000FFFFFFFFFFFFFFFFFFFFFFFFFFFFFFFFA8
:10690000FFFFFFFFFFFFFFFFFFFFFFFFFFFFFFFF97
:10691000FFFFFFFFFFFFFFFFFFFFFFFFFFFFFFFF87
:10692000FFFFFFFFFFFFFFFFFFFFFFFFFFFFFFFF77
:10693000FFFFFFFFFFFFFFFFFFFFFFFFFFFFFFFF67
:10694000FFFFFFFFFFFFFFFFFFFFFFFFFFFFFFFF57
:10695000FFFFFFFFFFFFD802D802D802D802D802FB
:10696000D802D802D802D802D802D802D802D80257
:10697000D802D802BB5CFFFFFFFFFFFFFFFFFFFF56
:10698000FFFFFFFFFFFFFFFFFFFF9DB6D802D8020A
:10699000D802D802D802D802D802D802D802D80227
:1069A000D802D802D802D802D802D8029DB6FFFF7A
:1069B000FFFFFFFFFFFFFFFFFFFFFFFFFFFFFFFFE7
:1069C000FFFFFFFFFFFFFFFFFFFFFFFFF80AD802F7
:1069D000D802D802D802D802D802D802D802D802E7
:1069E000D802D802D802D802D802D802FFFFFFFF8F
:1069F000FFFFFFFFFFFFFFFFFFFFFFFFFFFFFFFFA7
:106A0000FFFFFFFFFFFFFFFFFFFFFFFFFFFFFFFF96
:106A1000FFFFFFFFFFFFFFFFFFFFFFFFFFFFFFFF86
:106A2000FFFFFFFFFFFFFFFFFFFFFFFFFFFFFFFF76
:106A3000FFFFFFFFFFFFFFFFFFFFFFFFFFFFFFFF66
:106A4000FFFFFFFFFFFFFFFFFFFFFFFFFFFFFFFF56
:106A5000FFFFFFFFD802D802D802D802D802D8021E
:106A6000D802D802D802D802D802D802D802D80256
:106A7000D802D802FFFFFFFFFFFFFFFFFFFFFFFF6E
:106A8000FFFFFFFFFFFFFFFFFFFFFFFFD802D8025E
:106A9000D802D802D802D802D802D802D802D80226
:106AA000D802D802D802D802D802D802FFFFFFFFCE
:106AB000FFFFFFFFFFFFFFFFFFFFFFFFFFFFFFFFE6
:106AC000FFFFFFFFFFFFFFFFFFFFFFFFD802D8021E
:106AD000D802D802D802D802D802D802D802D802E6
:106AE000D802D802D802D802D8023A44FFFFFFFFEA
:106AF000FFFFFFFFFFFFFFFFFFFFFFFFFFFFFFFFA6
:106B0000FFFFFFFFFFFFFFFFFFFFFFFFFFFFFFFF95
:106B1000FFFFFFFFFFFFFFFFFFFFFFFFFFFFFFFF85
:106B2000FFFFFFFFFFFFFFFFFFFFFFFFFFFFFFFF75
:106B3000FFFFFFFFFFFFFFFFFFFFFFFFFFFFFFFF65
:106B4000FFFFFFFFFFFFFFFFFFFFFFFFFFFFFFFF55
:106B5000FFFFFFFFD802D802D802D802D802D8021D
:106B6000D802D802D802D802D802D802D802D80255
:106B7000D802F80AFFFFFFFFFFFFFFFFFFFFFFFF45
:106B8000FFFFFFFFFFFFFFFFFFFFFFFFFA33D8020A
:106B9000D802D802D802D802D802D802D802D80225
:106BA000D802D802D802D802D8023A44FFFFFFFF29
:106BB000FFFFFFFFFFFFFFFFFFFFFFFFFFFFFFFFE5
:106BC000FFFFFFFFFFFFFFFFFFFFBB5CD802D80204
:106BD000D802D802D802D802D802D802D802D802E5
:106BE000D802D802D802D802D802FFFFFFFFFFFF69
:106BF000FFFFFFFFFFFFFFFFFFFFFFFFFFFFFFFFA5
:106C0000FFFFFFFFFFFFFFFFFFFFFFFFFFFFFFFF94
:106C1000FFFFFFFFFFFFFFFFFFFFFFFFFFFFFFFF84
:106C2000FFFFFFFFFFFFFFFFFFFFFFFFFFFFFFFF74
:106C3000FFFFFFFFFFFFFFFFFFFFFFFFFFFFFFFF64
:106C4000FFFFFFFFFFFFFFFFFFFFFFFFFFFFFFFF54
:106C5000FFFFF80AD802D802D802D802D802D80218
:106C6000D802D802D802D802D802D802D802D80254
:106C7000D802FFFFFFFFFFFFFFFFFFFFFFFFFFFF48
:106C8000FFFFFFFFFFFFFFFFFFFFFFFFFFFFD80238
:106C9000D802D802D802D802D802D802D802D80224
:106CA000D802D802D802D802D802FFFFFFFFFFFFA8
:106CB000FFFFFFFFFFFFFFFFFFFFFFFFFFFFFFFFE4
:106CC000FFFFFFFFFFFFFFFFFFFFD802D802D80240
:106CD000D802D802D802D802D802D802D802D802E4
:106CE000D802D802D802D802D802FFFFFFFFFFFF68
:106CF000FFFFFFFFFFFFFFFFFFFFFFFFFFFFFFFFA4
:106D0000FFFFFFFFFFFFFFFFFFFFFFFFFFFFFFFF93
:106D1000FFFFFFFFFFFFFFFFFFFFFFFFFFFFFFFF83
:106D2000FFFFFFFFFFFFFFFFFFFFFFFFFFFFFFFF73
:106D3000FFFFFFFFFFFFFFFFFFFFFFFFFFFFFFFF63
:106D4000FFFFFFFFFFFFFFFFFFFFFFFFFFFFFFFF53
:106D5000FFFFD802D802D802D802D802D802D8023F
:106D6000D802D802D802D802D802D802D802D80253
:106D7000BB5CFFFFFFFFFFFFFFFFFFFFFFFFFFFF0A
:106D8000FFFFFFFFFFFFFFFFFFFFFFFFFFFFD80237
:106D9000D802D802D802D802D802D802D802D80223
:106DA000D802D802D802D802D802FFFFFFFFFFFFA7
:106DB000FFFFFFFFFFFFFFFFFFFFFFFFFFFFFFFFE3
:106DC000FFFFFFFFFFFFFFFFFFFFD802D802D8023F
:106DD000D802D802D802D802D802D802D802D802E3
:106DE000D802D802D802D802FFFFFFFFFFFFFFFF43
:106DF000FFFFFFFFFFFFFFFFFFFFFFFFFFFFFFFFA3
:106E0000FFFFFFFFFFFFFFFFFFFFFFFFFFFFFFFF92
:106E1000FFFFFFFFFFFFFFFFFFFFFFFFFFFFFFFF82
:106E2000FFFFFFFFFFFFFFFFFFFFFFFFFFFFFFFF72
:106E3000FFFFFFFFFFFFFFFFFFFFFFFFFFFFFFFF62
:106E4000FFFFFFFFFFFFFFFFFFFFFFFFFFFFFFFF52
:106E50003A44D802D802D802D802D802D802D802BE
:106E6000D802D802D802D802D802D802D802D80252
:106E7000FFFFFFFFFFFFFFFFFFFFFFFFFFFFFFFF22
:106E8000FFFFFFFFFFFFFFFFFFFFFFFFFFFFFFFF12
:106E9000D802D802D802D802D802D802D802D80222
:106EA000D802D802D802D802FFFFFFFFFFFFFFFF82
:106EB000FFFFFFFFFFFFFFFFFFFFFFFFFFFFFFFFE2
:106EC000FFFFFFFFFFFFFFFFD802D802D802D80262
:106ED000D802D802D802D802D802D802D802D802E2
:106EE000D802D802D802D802FFFFFFFFFFFFFFFF42
:106EF000FFFFFFFFFFFFFFFFFFFFFFFFFFFFFFFFA2
:106F0000FFFFFFFFFFFFFFFFFFFFFFFFFFFFFFFF91
:106F1000FFFFFFFFFFFFFFFFFFFFFFFFFFFFFFFF81
:106F2000FFFFFFFFFFFFFFFFFFFFFFFFFFFFFFFF71
:106F3000FFFFFFFFFFFFFFFFFFFFFFFFFFFFFFFF61
:106F4000FFFFFFFFFFFFFFFFFFFFFFFFFFFFFFFF51
:106F5000D802D802D802D802D802D802D802D80261
:106F6000D802D802D802D802D802D802D802F80A29
:106F7000FFFFFFFFFFFFFFFFFFFFFFFFFFFFFFFF21
:106F8000FFFFFFFFFFFFFFFFFFFFFFFFFFFFFFFF11
:106F9000D802D802D802D802D802D802D802D80221
:106FA000D802D802D802D802FFFFFFFFFFFFFFFF81
:106FB000FFFFFFFFFFFFFFFFFFFFFFFFFFFFFFFFE1
:106FC000FFFFFFFFFFFFFFFFD802D802D802D80261
