:020000040800F2
:100000006005002045010008110E0008BD0D000824
:100010000D0E00083F080008B71A00080000000095
:100020000000000000000000000000006111000856
:10003000BD0B000800000000990E000875120008B2
:100040005F0100085F0100085F0100085F01000810
:100050005F0100085F0100085F0100085F01000800
:100060005F0100085F0100085F0100085F010008F0
:100070005F0100085F0100085F0100085F010008E0
:100080005F0100085F0100085F0100085F010008D0
:100090005F0100085F0100085F0100085F010008C0
:1000A0005F0100085F0100085F0100085F010008B0
:1000B0005F0100085F0100085F0100085F010008A0
:1000C0005F0100085F0100085F0100085F01000890
:1000D0005F01000871170008A91800085F010008F7
:1000E0005F0100085F0100085F0100085F01000870
:1000F0005F0100085F0100085F0100085F01000860
:100100005F0100085F0100085F0100085F0100084F
:100110005F0100085F0100085F0100085F0100083F
:100120005F0100085F0100085F0100085F0100082F
:10013000DFF80CD000F042FA004800478D1C0008A0
:10014000600500200648804706480047FEE7FEE7B6
:10015000FEE7FEE7FEE7FEE7FEE7FEE7FEE7FEE777
:10016000B512000831010008F0B480EA0102D40F92
:100170004200B2EB410F02D20246084611464A0045
:1001800042D0C30DDDB2C1F3C752AD1A202D35DA0E
:10019000C1F3160141F4000204B15242C5F1200638
:1001A00002FA06F12A411044B3EBD05F23D0C4B168
:1001B000012DA0EBC35009DCF0BC4FF0004202EA75
:1001C000C352DBB200F5000000F06CB9400000F152
:1001D000807000EBC350A0F1807040EAD1704900FC
:1001E00009E0490841EAC071A0EBC35000F50000E6
:1001F000400800EBC350F0BC00F04BB96142012253
:1002000002EB4101001BF6E7F0BC704781F00041B2
:10021000AAE780F00040A7E780EA010210B502F0EB
:100220000043400022D04A001FD0010E01EB1261B2
:10023000C0F35600C2F3560240F4000042F400023C
:10024000A0FB022000047F39140400D0401C50EAB7
:10025000124001D44000491EC2B20C0604EBD0107B
:10026000401C4008802A02D003E0002010BD20F08E
:100270000100002900DA0020184310BD30B480EAE4
:10028000010202F0004530F0004221F0004013D09E
:1002900090B1C30DD40DC2F31601C0F31600E41AD9
:1002A00041F4000140F400027D34914201D3641C0A
:1002B00000E04900002C02DA30BC002070474FF407
:1002C00000000023914201D3891A034340084FEAFA
:1002D0004101F7D151B1914202D14FF0004105E007
:1002E00002D24FF0010101E06FF0010103EBC450B5
:1002F000284430BC00F0CDB82DE9FE4F81EA03045C
:1003000004F0004421F0004100944FF0000B23F072
:10031000004350EA01045ED052EA03045BD0C3F309
:100320000A54C1F30A552C44A4F2F3340194A0FBFF
:100330000254C1F3130141F48011C3F3130343F4D6
:10034000801301FB024400FB034E840A970A44EA2F
:10035000815447EA8357A4FB076802958D0A05FB81
:1003600007854FEA932C04FB0C542705029D4FEAA6
:10037000065847EA1637B5EB08056EEB070C870EF3
:10038000920E47EA811742EA8312A7FB0201B6EBFD
:100390000B0164EB00042B0D43EA0C335E1844EBB5
:1003A0001C50DA465146E7FB0201C5F313044FEA3D
:1003B0000B3343EA14534FEA0432019C43EA060329
:1003C000A4F10C040294009CCDE900B400F0A7F85D
:1003D00003B0BDE8F08F00200146F9E79623002224
:1003E000114600F05FB80EB540F233410291002192
:1003F000CDE900110A460B4600F091F803B000BDAC
:1004000000F0004220F00040C10DC0F3160040F49F
:1004100000007F2901DA00207047962903DCC1F132
:100420009601C84001E096398840002AF4D0404245
:10043000704720F00040C10DC0F3160040F40000EA
:100440007F2901DA00207047962903DCC1F196016B
:10045000C840704796398840704701F0004330B477
:1004600021F0004150EA010206D00A0DA2F56072A7
:10047000C1F31301002A02DC30BC00207047440F96
:1004800044EAC104C100E01830BC00EBC250AFF335
:1004900000800029A8BF7047401C490008BF20F019
:1004A0000100704710B4B0FA80FC00FA0CF050EA7A
:1004B000010404BF10BC704749B1CCF1200421FAFB
:1004C00004F411FA0CF118BF012121430843A3EBF6
:1004D0000C01CB1D4FEA00614FEA102042BF002003
:1004E00010BC704700EBC35010440029A4BF10BCDF
:1004F0007047401C490008BF20F0010010BC704745
:1005000010B5141E73F1000408DA401C41F100011B
:1005100092185B411A4301D120F0010010BD2DE972
:10052000F04D92469B4611B1B1FA81F202E0B0FA69
:1005300080F22032904600F053F804460F4640EA1D
:100540000A0041EA0B0153465A46084313D01146AC
:1005500053EA010019D0C8F14002504600F04FF8AC
:1005600005460E4650465946424600F039F80843C3
:1005700005D0012004E020463946BDE8F08D00207A
:10058000054346EAE0762C4337430A986305E40ABC
:10059000A0EB08000022FD0A44EA47540A3002D5C5
:1005A00000200146E9E7010510196941DDE9084528
:1005B00000196941BDE8F04DA2E70000064C074D67
:1005C00006E0E06840F0010394E807009847103423
:1005D000AC42F6D3FFF7B0FD201E0008401E000815
:1005E000202A04DB203A00FA02F1002070479140F3
:1005F000C2F1200320FA03F3194390407047202AE8
:1006000004DB203A21FA02F00021704721FA02F3BC
:10061000D040C2F1200291400843194670470000C3
:1006200000B587B001214FF4017000F063FC4FF476
:10063000004000F033FC0220ADF8180000208DF8D7
:100640001B0003208DF81A0006A9184800F0B7FA1D
:10065000002001908DF808008DF809004FF460200B
:1006600003900020049001208DF8140001A9104887
:1006700000F04CF801210E4800F01CF80C4800F086
:10068000C9F800BF0A4800F037F80028FAD1084836
:1006900000F0D0F800BF064800F017F80028FAD1A3
:1006A0000121034800F0BBF807B000BD000801407D
:1006B0000024014021B1826842F00102826003E01F
:1006C000826822F0010282607047014600208A6839
:1006D00002F004020AB1012000E000207047014648
:1006E000C86C80B270470246002013680B400BB103
:1006F000012000E000207047014600208A6802F0D7
:1007000008020AB1012000E00020704730B502461F
:100710000020002350680F4C20400D790C6844EAFB
:1007200005242043506090680B4C2040D1E90254CE
:100730002C434D7944EA450420439060D06A20F46C
:1007400070000C7C641EE4B2234340EA0350D06284
:1007500030BD0000FFFEF0FFFDF7F1FFF0B50446ED
:100760000D4600200021092D11DDE068A5F10A06E3
:1007700006EB4607072606FA07F18843A5F10A06A5
:1007800006EB460603FA06F10843E0600CE0206938
:1007900005EB4507072606FA07F1884305EB4506F2
:1007A00003FA06F108432061072A0FDA606B561E30
:1007B00006EB86071F2606FA07F18843561E06EB4E
:1007C000860605FA06F10843606322E00D2A0FDA77
:1007D000206BD61F06EB86071F2606FA07F1884313
:1007E000D61F06EB860605FA06F10843206310E0E3
:1007F000E06AA2F10D0606EB86071F2606FA07F14E
:100800008843A2F10D0606EB860605FA06F10843B9
:10081000E062F0BD816841F008018160704721B15C
:10082000826842F4A002826003E0826822F4A0029F
:1008300082607047816841F004018160704700BFA9
:10084000FEE7000010B5002400F064F804E0601C2E
:10085000C4B2012001F0E2F90D48006808B1C82CCB
:10086000F5DBC82C01DB012010BD002404E0601C76
:10087000C4B2012001F0D2F90548006808B9F02C93
:10088000F5DBF02C01DB0120EEE70020ECE70000B7
:10089000308121422DE9F05F00F0C2F800F0AAF8A3
:1008A000FFF7D0FFCC2000F0C7F8BE2000F0C4F85E
:1008B00000F08EF8834600F08BF8824654460BEB2E
:1008C000042084B204F47840B0F5784F0FD1E043AF
:1008D000401C84B22046FFF786FD074600220B4BE2
:1008E000FFF70AFD0546FFF7B8FD81460BE02046FD
:1008F000FFF779FD05460022054BFFF7FDFC074693
:10090000FFF7ABFD81464846BDE8F09F0000B0BF51
:100910000000B03F08B54FF48050ADF8000048200B
:100920008DF803006946024800F049F908BD00004F
:10093000000C014008B54FF48050ADF800000320D2
:100940008DF8020010208DF803006946014800F080
:1009500036F908BD000C014008B50121082000F05F
:10096000C9FA4FF48050ADF8000003208DF8020062
:1009700010208DF803006946034800F020F900F0CC
:1009800039F8FFF75FFF08BD000C014010B5FFF715
:10099000D1FF00200C490860022001F03FF901203E
:1009A0000A49C1F8B001FFF7B5FF0C2001F036F994
:1009B00005488038006808B1012400E00024322096
:1009C00001F02CF9204610BDB08121420080214267
:1009D00070B50026012508E0FFF7D8FF0446E001C6
:1009E00040EA6600C6B2681CC5B2082DF4DD304688
:1009F00070BD000010B5FFF79DFF0020064908609C
:100A000040F2EE2001F00AF901200449C1F8B001DA
:100A10000F2001F003F910BDB08121420080214276
:100A200010B5FFF7E7FFFFF70DFFCC2000F004F84B
:100A3000442000F001F810BD70B50446FFF77AFFBE
:100A4000012520E004F0010664106EB100200F497A
:100A50000860022001F0E2F801200D49C1F8B00160
:100A60003C2001F0DBF80CE00020084908603C2045
:100A700001F0D4F801200649C1F8B001022001F0CC
:100A8000CDF8681CC5B2082DDCDD70BDB0812142F7
:100A9000008021422DE9F84F04460E46174698463D
:100AA000DDE90AAB00253088C11700EB1161C1F305
:100AB00007232A466D1CA3543088C11700EB11612F
:100AC0000912A0EB01212A466D1CA1543888C117D8
:100AD00000EB1161C1F307232A466D1CA35438882B
:100AE000C11700EB11610912A0EB01212A466D1C10
:100AF000A154B8F80000C11700EB1161C1F307233E
:100B00002A466D1CA354B8F80000C11700EB116110
:100B10000912A0EB01212A466D1CA1542549DAF8DF
:100B20000000FFF779FB4FF087410090FFF7A6FB2D
:100B30008146FFF77EFC29466D1C60541D49DAF89A
:100B40000000FFF769FB0090FFF75AFC8146C017D1
:100B500009EB10600012A9EB0020C2B22846691C04
:100B6000CDB222541449DBF80000FFF755FB4FF0DB
:100B700087410090FFF782FB8146FFF75AFCC2B223
:100B80002846691CCDB222540B49DBF80000FFF760
:100B900043FB0090FFF734FC8146C01709EB10605F
:100BA0000012A9EB0020C2B22846691CCDB2225423
:100BB000BDE8F88F000020410000C84270472DE9D1
:100BC000F0410246002500260020002300240027D3
:100BD00091F803C00CF00F0591F803C00CF0100C55
:100BE000BCF1000F03D091F802C04CEA050591F862
:100BF00000C0BCF1000F31D0146800202BE04FF092
:100C0000010C0CFA00F3B1F800C00CEA03069E4296
:100C100020D183004FF00F0C0CFA03F7BC4305FA08
:100C200003FC4CEA040491F803C0BCF1280F06D180
:100C30004FF0010C0CFA00FCC2F814C00AE091F865
:100C400003C0BCF1480F05D14FF0010C0CFA00FCB9
:100C5000C2F810C0401C0828D1D31460B1F800C0FD
:100C6000BCF1FF0F34DD546800202EE000F1080CC9
:100C70004FF0010808FA0CF3B1F800C00CEA0306C3
:100C80009E4221D183004FF00F0C0CFA03F7BC43B6
:100C900005FA03FC4CEA040491F803C0BCF1280FE8
:100CA00005D100F1080C08FA0CF8C2F8148091F88C
:100CB00003C0BCF1480F07D100F1080C4FF0010848
:100CC00008FA0CF8C2F81080401C0828CED35460F3
:100CD000BDE8F081F0B50A4600230024002100257C
:100CE00000F00046B6F1004F02D11D4EF16901E05F
:100CF0001B4E7168C0F3034583B200F44016B6F58D
:100D0000401F08D121F07061154E766826F070669C
:100D1000134F7E6012E000F48016B6F5801F06D1F6
:100D2000032606FA05F4A14341F0706106E0460D82
:100D3000360103FA06F6B14341F0706122B1460D67
:100D4000360103FA06F6314300F00046B6F1004FD3
:100D500002D1034EF16101E0014E7160F0BD00006F
:100D600000000140016170472DE9F04105460C4645
:100D700000260723012229460F48FFF7EFFC002732
:100D800013E001210C48FFF74AFD00BF02210A4889
:100D9000FFF7A9FC0028F9D00748FFF7A0FC06449C
:100DA000052000F015FF781CC7B2A742E9DBB6FBAF
:100DB000F4F080B2BDE8F0810024014000BFFEE7FE
:100DC00008B50121482000F095F82020ADF800007A
:100DD00010208DF8030003208DF8020069460948B1
:100DE000FFF7EDFE20210748FFF7BCFF2020ADF8FC
:100DF000000069460448FFF7E2FE20210248FFF7A1
:100E0000B1FF08BD000C01400018014000BFFEE723
:100E10007047000070B5002100230F22C47804B38E
:100E2000154C246804F4E064C4F5E064210AC1F1BF
:100E30000403CA40447804FA03F18478144021433F
:100E400009010E4C0678A155047804F01F05012411
:100E5000AC4005786D11AD0005F1E025C5F8004105
:100E600009E0047804F01F050124AC40044D067825
:100E7000761145F8264070BD0CED00E000E400E07E
:100E800080E100E002490143024A1160704700001E
:100E90000000FA050CED00E070470000014600205C
:100EA000034A506820F440400843506070470000F7
:100EB0000010024029B1064AD2690243044BDA61AC
:100EC00004E0034AD2698243014BDA6170470000B3
:100ED0000010024029B1064A12690243044B1A610C
:100EE00004E0034A12698243014B1A617047000013
:100EF0000010024029B1064A92690243044B9A61EC
:100F000004E0034A92698243014B9A6170470000F2
:100F10000010024030B500210022002400232D4D96
:100F20006D6805F00C0121B1042905D0082923D1F1
:100F300005E0294D056022E0274D05601FE0254DA5
:100F40006D6805F47012234D6D6805F48034022538
:100F500005EB92421CB9214D554305600BE01D4D38
:100F60006D6805F400351DB11C4D5543056002E068
:100F7000194D5543056002E0174D056000BF00BFE5
:100F8000144D6D6805F0F0010909154D6B5C05689D
:100F9000DD4045600F4D6D6805F4E061090A104DB4
:100FA0006B5C4568DD4085600A4D6D6805F46051F5
:100FB000C90A0B4D6B5C4568DD40C560054D6D6829
:100FC00005F44041890B074D6B5CC568B5FBF3F533
:100FD000056130BD0010024000127A0000093D009A
:100FE000260000203600002010B586B004460121FE
:100FF0001420FFF77FFF01214804FFF75BFF8020EB
:10100000ADF8140010208DF8170003208DF816009D
:1010100005A92748FFF7D3FD0420ADF814001820D8
:101020008DF8170005A92348FFF7C9FD0820ADF882
:10103000140004208DF8170005A91E48FFF7BFFD16
:1010400001214804FFF746FF00214FF40030FFF76D
:1010500041FF01940020ADF80800ADF80A00ADF89A
:101060000C00ADF810000C20ADF80E0001A91248DC
:1010700000F0ACFC26208DF8000003208DF8010064
:101080008DF8020001208DF803006846FFF7C2FECC
:10109000012240F22551084800F072FC0121064867
:1010A00000F02BFC00200549086006B010BD0000D0
:1010B0000010014000080140004400409C01224211
:1010C0002DE9F04107460D460E4806780024002021
:1010D00028700A2000F07CFD0A48007886420FD173
:1010E00076B100BF04E00848005D3855601CC4B20A
:1010F000B442F8DB034800782870002001490870EA
:10110000BDE8F0813A0000205500002070B505468A
:101110000E4601200F49086000240CE000BF40216A
:101120000D4800F0F6FB0028F9D0295D0A4800F0D0
:10113000BEFC601CC4B2B442F0DB00BF40210648D4
:1011400000F0E7FB0028F9D00020044908700149AD
:10115000086070BD9C012242004400403A0000201B
:10116000704710B500F002F810BD00000CB500206B
:10117000019000903348006840F4803031490860A5
:1011800000BF3048006800F4003000900198401C17
:101190000190009818B90198B0F5A06FF1D12948D5
:1011A000006800F4003010B10120009001E0002040
:1011B00000900098012843D12348006840F01000B7
:1011C000214908600846006820F0030008600846CE
:1011D000006840F0020008601A48406819494860F9
:1011E0000846406848600846406840F480604860AF
:1011F0000846406820F47C1048600846406840F487
:10120000E81048600846006840F08070086000BF41
:101210000C48006800F000700028F9D009484068C8
:1012200020F00300074948600846406840F002008B
:10123000486000BF0348406800F00C000828F9D15E
:101240000CBD00000010024000200240042808D11C
:101250004FF0E021096941F004014FF0E0221161F3
:1012600007E04FF0E021096921F004014FF0E0228E
:10127000116170477047000010B504466FF004001C
:10128000FFF7E4FFE11704EB5171C1F3C701074A0F
:1012900011701046007800EB4001C1EBC0104FF612
:1012A000FF7101EAC0000249088010BD3C00002027
:1012B0003E00002010B51348006840F001001149BD
:1012C000086008464068104908400E4948600846D2
:1012D00000680E4908400B4908600846006820F481
:1012E000802008600846406820F4FE0048604FF403
:1012F0001F008860FFF735FF4FF000600449086069
:1013000010BD0000001002400000FFF8FFFFF6FED5
:1013100008ED00E030B589B005460C4601210820F3
:10132000FFF7E8FD01210220FFF7C4FD0121084677
:10133000FFF7E0FD3320ADF8040003208DF8060030
:1013400018208DF8070001A92348FFF738FC012178
:101350002248FFF7BFFCADF81C50ADF81840002044
:10136000ADF81E00ADF81A0006A91D4800F0AEF950
:101370006020ADF808000220ADF810000120ADF8A3
:101380000A0002A9164800F045F802A9144800F026
:1013900097F802A9124800F0F3F802A9104800F0EB
:1013A00049F908210E4800F081F808210C4800F0A6
:1013B000D9F808210A4800F033F90821084800F05C
:1013C00077F90121064800F00DF80121044800F0EA
:1013D00015F809B030BD0000000C014000081A00EB
:1013E0000004004021B1028842F08002028004E043
:1013F00002884FF67F731A400280704721B102883D
:1014000042F00102028004E002884FF6FE731A40A7
:101410000280704770B5002400220023058C4FF62F
:10142000FE7635400584028C8388048B4FF68F75D9
:101430002C40B51E2C400D882C43751E2A400D896A
:101440002A434D882A43144DA8420BD0134DA8427D
:1014500008D0134DA84205D0124DA84202D0124D1B
:10146000A84213D14FF6F7752A404D892A434FF60B
:10147000FB752A408D882A434FF6FF652B404FF6B7
:10148000FF552B408D892B43CD892B4383800483CB
:10149000CD888586028470BD002C01400034014057
:1014A0000040014000440140004801400A4600213C
:1014B000018B4FF6F7731940114301837047000009
:1014C00070B5002400220023058C4FF6EF763540DE
:1014D0000584028C8388048B48F6FF752C404FF6F8
:1014E000FF452C400D884FF6FF7606EA05252C4374
:1014F0004FF6DF752A400D8906EA05152A434D8807
:1015000006EA05152A43154DA84202D0144DA842FB
:101510001DD14FF67F752A404D894FF6FF7606EABA
:1015200005152A434FF6BF752A408D8806EA051532
:101530002A434FF6FF352B404FF2FF752B408D8924
:1015400006EA85052B43CD8906EA85052B43838072
:101550000483CD880587028470BD0000002C014003
:10156000003401400A460021018B4FF2FF731940FD
:101570004FF6FF7303EA022319430183704700000B
:1015800070B5002400220023058C4FF6FF6635401D
:101590000584028C8388848B4FF68F752C404FF620
:1015A000FC752C400D882C434FF6FF552A400D89C1
:1015B0004FF6FF7606EA05252A434D8806EA0525FB
:1015C0002A43154DA84202D0144DA8421DD14FF216
:1015D000FF752A404D894FF6FF7606EA05252A4316
:1015E0004FF6FF352A408D8806EA05252A434EF638
:1015F000FF752B404DF6FF752B408D8906EA0515CA
:101600002B43CD8906EA05152B4383808483CD883F
:101610008587028470BD0000002C01400034014029
:101620000A460021818B4FF6F773194011438183DD
:101630007047000070B5002200230024058C4EF690
:10164000FF7635400584038C8488828B48F6FF75CD
:101650002A404FF6FF452A400D884FF6FF7606EAEE
:1016600005252A434DF6FF752B400D8906EA053501
:101670002B434D8806EA05352B430B4DA84202D07B
:101680000A4DA84208D14BF6FF752C408D894FF6C4
:10169000FF7606EA85152C4384808283CD88A0F8E6
:1016A0004050038470BD0000002C01400034014014
:1016B0000A460021818B4FF2FF7319404FF6FF73EA
:1016C00003EA022319438183704700000022028845
:1016D0001D4B98420ED01D4B98420BD0B0F1804F5D
:1016E00008D01B4B984205D01A4B984202D01A4B97
:1016F000984204D14FF68F731A404B881A43174B08
:10170000984207D0164B984204D04FF6FF431A4038
:10171000CB881A4302808B8883850B8803850A4B0C
:1017200098420BD0094B984208D00E4B984205D0F6
:101730000D4B984202D00D4B984201D10B7A038693
:101740000123838270470000002C014000340140D7
:101750000004004000080040000C00400010004061
:101760000014004000400140004401400048014096
:1017700010B540F225511D4800F0D8F810B31B48B1
:1017800000F090F9C4B21A48008800F40040C8B9CB
:101790001748008800F4804060B10A2C03D0002074
:1017A0001349088020E01248008840F400401049A6
:1017B000088019E00D2C06D10D48008840F48040C7
:1017C0000B49088010E00A480088C0F30D00094961
:1017D0000C5407480088401C0549088008460088CA
:1017E000C72801DD0020088010BD0000003801403E
:1017F000400000209500002010B586B0044601216D
:101800000420FFF777FB01218803FFF773FB4FF4F8
:101810000070ADF8140003208DF8160018208DF824
:10182000170005A91E48FFF7CAF94FF48060ADF80C
:10183000140004208DF8170005A91948FFF7BFF917
:1018400001940020ADF80800ADF80A00ADF80C00D6
:10185000ADF810000C20ADF80E0001A9114800F001
:10186000B5F801210F4800F048F840210D4800F07C
:101870003BF8012240F225510A4800F081F825206A
:101880008DF8000003208DF801008DF80200012082
:101890008DF803006846FFF7BDFA06B010BD0000E2
:1018A000000801400038014010B540F225510B48B6
:1018B00000F03CF880B1094800F0F4F8C4B20848E0
:1018C0000078402808DA0748054909784454044854
:1018D0000078401C0249087010BD00000044004020
:1018E0003A0000205500002001F40072B2F5007F9C
:1018F00000D100BFCA430280704721B1828942F4FF
:101900000052828104E082894DF6FF731A40828181
:10191000704702460020B1F5007F00D100BF138858
:101920000B400BB1012000E00020704770B502466B
:10193000002400230025002040F66A16B14200D1A1
:1019400000BFC1F3421501F01F03012606FA03F39D
:10195000012D02D19689334006E0022D02D1168A6C
:10196000334001E0968A33400C12012606FA04F453
:101970001688344013B10CB1012000E0002070BD86
:10198000F0B50346002400260025002040F66A1723
:10199000B94200D100BF1846C1F3421401F01F063E
:1019A000012707FA06F5012C01D10C3004E0022CC6
:1019B00001D1103000E014301AB107682F430760DE
:1019C00002E00768AF430760F0BD00002DE9F04773
:1019D00086B005460E460024A24600BFA146002759
:1019E000B08900B100BF2F462C8A4CF6FF7004402E
:1019F000F08804432C82AC894EF6F3100440B08882
:101A000031890843718908430443AC81AC8A4FF69D
:101A1000FF400440B0890443AC8201A8FFF77AFA82
:101A20001F48874202D1DDF810A001E0DDF80CA0CC
:101A3000A88900F4004040B10AEBCA0000EB0A108C
:101A400031684900B0FBF1F807E00AEBCA0000EB8F
:101A50000A1031688900B0FBF1F86420B8FBF0F09F
:101A600004012009642101FB1089A88900F40040C9
:101A700040B1322000EBC900B0FBF1F000F00700EC
:101A8000044308E0322000EB09106421B0FBF1F0C0
:101A900000F00F0004432C8106B0BDE8F087000081
:101AA0000038014001468888C0F308007047C1F340
:101AB00008028280704700BFFEE700000FB4054BAC
:101AC00010B503A9044A029800F017F810BC5DF89D
:101AD00014FB0000691C00084400002002E008C854
:101AE000121F08C1002AFAD170477047002001E098
:101AF00001C1121F002AFBD170472DE9F84F99460A
:101B0000924688460546002706E025280AD0514619
:101B10004A4690476D1C7F1C28780028F5D138462E
:101B2000BDE8F88F002315F8011F18462E2915D19E
:101B300015F8011F04232A290DD06FF02F022978F0
:101B4000A1F13004092C09D800EB800002EB400021
:101B500008446D1CF3E758F8040B6D1C2A78002A22
:101B6000DDD0632A07D0732A0FD0104651464A466B
:101B700090477F1C2AE018F8042B8DF800200021E4
:101B80008DF801106E46012103E058F8046B4FF008
:101B9000FF315A074FF0000401D409E0641C84426D
:101BA0000BDA8C42FADB325D002AF7D105E0641CC7
:101BB0008C42FCDB305D0028F9D1274404E016F8A4
:101BC000010B51464A469047641EF8D26D1CA3E7AC
:101BD0000146114A12884A434FF0E0235A6100221D
:101BE0009A611A46126942F001021A6100BF4FF071
:101BF000E022106900F001021AB100F48032002ADC
:101C0000F5D04FF0E022126922F001024FF0E023FC
:101C10001A6100229A6170473E0000200146114A75
:101C200012784A434FF0E0235A6100229A611A4623
:101C3000126942F001021A6100BF4FF0E022106900
:101C400000F001021AB100F48032002AF5D04FF002
:101C5000E022126922F001024FF0E0231A61002213
:101C60009A6170473C00002070B504460D46E1B211
:101C70000548FFF71CFF00BF80210348FFF749FE1E
:101C80000028F9D0204670BD003801401CB548201E
:101C9000FFF7F2FA4FF4A060FFF7F4F8FFF790F8BF
:101CA0004FF41650FFF7A8FD4FF41650FFF79CF9BC
:101CB000FEF7B6FCFEF750FE472140F2E730FFF793
:101CC00029FB4FF4617045490880091D0880091DF2
:101CD0000880091D088080E00A20FFF779FF40484E
:101CE0000078401C3E49087014210120FFF73CF8A1
:101CF0003C490880FEF7CEFD3B4908603948008822
:101D0000FEF76CFB05464FF08B41FEF7B7FA044631
:101D10004FF07E51FEF77DFA344908603048007874
:101D2000142190FBF1F201FB120030B90821304878
:101D3000FFF7ECF90A20FFF74BFF2E492E48FFF77B
:101D4000BFF92D48C07842F2107101EB00202A49FA
:101D500009790844294908802748407944F62061D8
:101D600001EB00202449897908442549088022484C
:101D7000C07947F2305101EB00201F49097A08442D
:101D800020490880164800780A2190FBF1F201FBF7
:101D90001200F8B9144801681B48FEF7E5F912492A
:101DA00008601A4911480068FEF736FA04461849D7
:101DB000FEF7DAF90D49086008460B49114B104A45
:101DC000CDE900100D491348FEF764FE114912A039
:101DD000FFF774FE0A20FFF7FBFE7DE734040040A6
:101DE0000A0000200800002004000020000000205D
:101DF0000D0000200B0000204800002016000020ED
:101E0000180000201A00002000007A450000C84297
:101E10000000FA431C00002025730D0A000000009A
:101E2000401E00080000002048000000DC1A0008E6
:101E3000881E00084800002018050000EC1A000861
:101E40000000000000000000000000000009030086
:101E50001E00036485000000000000001111111134
:101E600011111111111100000000010203040102FF
:101E70000304060708090204060800000000000029
:081E800000000000000000005A
:0400000508000131BD
:00000001FF
